:1007E000006600000008000063E800000000000050
:1007F00000000000000000000000000000000000F9
:100800000226B61214737402F02200021F4C121555
:100810003A2200022CADD2AF320000020816D2AF4D
:1008200032000002195D022F64000002081EE70971
:10083000F608DFFA8046E709F208DFFA803E888290
:100840008C83E709F0A3DFFA8032E309F608DFFAC8
:100850008078E309F208DFFA807088828C83E309EC
:10086000F0A3DFFA806489828A83E0A3F608DFFAC6
:10087000805889828A83E0A3F208DFFA804C80D214
:1008800080FA80C680D4806980F28033801080A690
:1008900080EA809A80A880DA80E280CA80338982E8
:1008A0008A83ECFAE493A3C8C582C8CCC583CCF094
:1008B000A3C8C582C8CCC583CCDFE9DEE7800D893B
:1008C000828A83E493A3F608DFF9ECFAA9F0EDFB42
:1008D0002289828A83ECFAE0A3C8C582C8CCC5838A
:1008E000CCF0A3C8C582C8CCC583CCDFEADEE880E3
:1008F000DB89828A83E493A3F208DFF980CC88F055
:10090000EF60010E4E60C388F0ED2402B404005085
:10091000B9F582EB2402B4040050AF2323458223AF
:1009200090087E73EF8DF0A4A8F0CF8CF0A428CEB1
:100930008DF0A42EFE22C2D5EC30E709B2D5E4C377
:100940009DFDE49CFCEE30E715B2D5E4C39FFFE4C7
:100950009EFE120BB5C3E49DFDE49CFC8003120BCC
:10096000B530D507C3E49FFFE49EFE22C5F0F8A38F
:10097000E028F0C5F0F8E582158270021583E038B2
:10098000F022BB010A89828A83E0F5F0A3E02250BD
:100990000687F009E71922BBFE07E3F5F009E31922
:1009A0002289828A83E493F5F074019322BB0107C4
:1009B00089828A8302096C500B09C5F027F7C5F0BC
:1009C0001937F722BBFE0D09F8E325F0F3C5F0193E
:1009D000E338F322F889828A8374019325F0C5F005
:1009E000F8E4933822BB010A89828A83F0E5F0A3F8
:1009F000F0225006F709A7F01922BBFE06F3E5F036
:100A000009F3192275F008758200EF2FFFEE33FE0F
:100A1000CD33CDCC33CCC58233C5829BED9AEC99D6
:100A2000E58298400CF582EE9BFEED9AFDEC99FC78
:100A30000FD5F0D6E4CEFBE4CDFAE4CCF9A88222BF
:100A4000B800C1B90059BA002DEC8BF084CFCECDDF
:100A5000FCE5F0CBF97818EF2FFFEE33FEED33FD18
:100A6000EC33FCEB33FB10D703994004EB99FB0FFD
:100A7000D8E5E4F9FA227818EF2FFFEE33FEED33D4
:100A8000FDEC33FCC933C910D7059BE99A4007EC4C
:100A90009BFCE99AF90FD8E0E4C9FAE4CCFB227593
:100AA000F010EF2FFFEE33FEED33FDCC33CCC83327
:100AB000C810D7079BEC9AE899400AED9BFDEC9A89
:100AC000FCE899F80FD5F0DAE4CDFBE4CCFAE4C801
:100AD000F922EB9FF5F0EA9E42F0E99D42F0EC64CA
:100AE00080C864809845F022EB9FF5F0EA9E42F0C2
:100AF000E99D42F0E89C45F022E8600FECC313FC4E
:100B0000ED13FDEE13FEEF13FFD8F122E8600FEFB7
:100B1000C333FFEE33FEED33FDEC33FCD8F122ECB2
:100B2000F0A3EDF0A3EEF0A3EFF022A8828583F00E
:100B3000D083D082120B42120B42120B42120B4294
:100B4000E473E493A3C583C5F0C583C8C582C8F028
:100B5000A3C583C5F0C583C8C582C822EC8EF0A4A6
:100B6000CCC5F0CCCDF8EFA4CEC5F02DFDE43CFC17
:100B7000E8A42EC8C5F03DFDE43CFCEFA4FFE5F081
:100B800028FEE43DFDE43CFC22EF4E6012EF6001E4
:100B90000EEDBB010B89828A83F0A3DFFCDEFA2213
:100BA00089F05007F709DFFCA9F022BBFEFCF3092E
:100BB000DFFCA9F022BC000BBE0029EF8DF084FF02
:100BC000ADF022E4CCF875F008EF2FFFEE33FEEC29
:100BD00033FCEE9DEC984005FCEE9DFE0FD5F0E950
:100BE000E4CEFD22EDF8F5F0EE8420D21CFEADF04F
:100BF00075F008EF2FFFED33FD4007985006D5F054
:100C0000F222C398FD0FD5F0EA221212E0FDACF0FB
:100C1000D39FEC9E40329002521212F4121560D310
:100C2000EF9430EE9475400C9002D97475F0A37473
:100C300030F0800D1212EB1214949002D9F0A3EF51
:100C4000F0E49002CE020CB91212F1FFAEF0900265
:100C5000521212F4FDACF0C39FFFEC9EFED3EF9452
:100C600010EE9427400C9002D97427F0A37410F072
:100C700080121212F1FFC3ED9FFEEC95F09002D9A5
:100C8000F0A3CEF09002D9E0FFA3E09002CECFF027
:100C9000A3EFF0300018D3E0942C9002CEE0940142
:100CA00040139002D07427F0A37410F08007E490F2
:100CB00002D0F0A3F0E49002D9F0A3F090026DE02E
:100CC0006050121382D39400EE64809480401A9096
:100CD00002641212F4FDD3EF9DEE95F0400B9001EB
:100CE0007BE4F0A37464F0801BD390017CE094005B
:100CF00090017BE09400400C90024F1212F490029D
:100D0000D912146BD20B900181740FF0A374A0F070
:100D1000801190017F7403F0A374E8F07A00794A9F
:100D2000121347D39002DAE094009002D9E0648075
:100D300094805003020F3EE0F9A3E0FF90024F12AF
:100D4000130C12136D121382121574E47BB87A8897
:100D5000F9F8C3120AD2500A9002D97488F0A37429
:100D6000B8F0D390017EE0940090017DE0940050B3
:100D70000790001BE0B4201D121382C39496EE640A
:100D80008094805010EF9400EE6480948040237C27
:100D9000007D0A801230001A121382C39575EE95F9
:100DA00074500F7C027DBC1209369002D9EEF0A37C
:100DB000EFF090026DE07003020F1890017FE07079
:100DC00002A3E06003020F18121382121574E54D9E
:100DD0002FF54DE54C3EF54CE54B3DF54BE54A3CDA
:100DE000F54A054FE54F7002054EC3E55394D0E533
:100DF0005294075003020EBAAE4EAF4FCBEFCB1258
:100E000013B7AF4DAE4CAD4BAC4A120A409002DB6B
:100E1000EEF0A3EFF0C3E5519FFFE5509EFE122FC9
:100E2000C39002DDEEF0A3EFF0D39464EE94005093
:100E300006E5514550700D9002DBE0F550A3E0F55A
:100E400051020EA9D39002DCE095519002DBE095AF
:100E50005040281214BC400474148018D3EF943C02
:100E6000EE94004004740A800BD3EF9428EE9400B3
:100E7000403774052551F551E4802A1214BC40070F
:100E800074EC12157B801ED3EF943CEE9400400767
:100E900074F612157B800ED3EF9428EE940040096F
:100EA00074FB12157B3550F550E4F54DF54CF54BC0
:100EB000F54AF54EF54FF552F553D3E5519400E55B
:100EC0005094004028120F689002A2EEF0A3EFF0B9
:100ED000C3120F6812156A500812151EE4F55480EB
:100EE0000CE554C39407500512151E0554E5DB208C
:100EF000E23F9002581212F4FFAEF07C007D0F1218
:100F0000149B121382121574EB7B1012138B900238
:100F10005812130CF9EE8014E5DB20E2149002D98C
:100F2000E0F9A3E0FF90025812130CC98FF01209E8
:100F3000E59002581212F424A8FFE5F0801D9002FB
:100F40004F12130C12146490025812130C121464F2
:100F50009002DAE024A8FF9002D9E03461F990020F
:100F60005512130C12136D229002DAE09551FF9086
:100F700002D9E09550FE122FC322208A030212DF0D
:100F8000900177E07002A3E060030212DF90017528
:100F9000E07002A3E060030212DF9002A4E070029E
:100FA000A3E060030212DF1214AB60030212DF90B1
:100FB000026DE070309002611212F4FFAEF0900208
:100FC0004F1212F4D39FE5F09E40030212DF12137A
:100FD00073E49002B0F0A3F012152A90017B121571
:100FE00041F5708003757000757110E4F5B2122D33
:100FF0004F9002B4E0F555A3E0F556C209758D2077
:10100000438D20758D8043A808D2AF758B02758EF5
:10101000C82006241214AB701F200C1CE5DB20E254
:1010200017758A84200C0DE5DB20E2087587030024
:1010300000008006D2098002D209758B11758A10D2
:1010400053A8F7D3900176E09490900175E0940155
:10105000400EA3E02470F0900175E034FEF08007AC
:10106000E4900175F0A3F0D3900182E09490900198
:1010700081E09401400EA3E02470F0900181E034FF
:10108000FEF08007E4900181F0A3F0122D4F1223AF
:10109000E3900244E0F572A3E0F573900248E0F5B6
:1010A00022A3E0F523E5732527FFE5723526FEC36D
:1010B000EF9523F525EE9522F524E5272488FFE515
:1010C000263413FED3E5259FE5249E40048E248F0D
:1010D00025902E23E4F043890A12136643800A43C5
:1010E00089029002A0E524F0A3E525F0C3E556951A
:1010F00025FFE5559524FE122FC38E578F581215E4
:101100008B40030212A0AE24AF257C007D10120B91
:101110005C121595AF6FAE6EAD6DAC6C9002D712D0
:101120001338FBD3120AE89002D7401712144995DE
:101130006FFFEE956EFEED956DFDEC956CFC121556
:10114000958007120B2B00000000E47F607EEAFD13
:10115000FC9002D7121338FBD3120AE8400A90021F
:10116000D7120B2B0000EA601212F1FFAEF07C00E8
:101170007D09120B5C9002D71213387B0A12138B75
:1011800012159590026DE07036AE55AF56FC7D0994
:1011900012149BE4FCFDEB2525FFEA352412132DE8
:1011A000E47B0A1213978E558F569002D7121302C2
:1011B00012136D12143B12130C12136D0212A012B3
:1011C000143B12130C12136D9002521212F4FFAE64
:1011D000F09002D7121335FBD3120AE85003021223
:1011E000B01212E0121494FEC3EF9575EE95745090
:1011F000030212B090024F1212F4FFAEF07C007D99
:1012000002120B5CC8ECC8EDC0E0EEC0E0EFC0E03D
:101210001212E0121494FEE4FCFDD0E0FBD0E0FAE0
:10122000D0E0F9121328E47B0312139790024F12B7
:10123000130C12148390024F1212F4D39430E5F081
:1012400094754008747575F0301209E59002B7E0A6
:10125000604E121403404990024F1212F41214947B
:10126000FE122FC39002DBEEF0A3EFF090024F12BC
:1012700012F412135250101214E4400B121309F915
:10128000E475F0071209AD90024F1212F4FFD31269
:101290001354400CD31214E44006121309121582A1
:1012A00020090D12158B50081214AB7003020FFDAC
:1012B0009002B6E004121454121343E490029C12FC
:1012C00013C2F09002BF120B2B000000001213BEDD
:1012D00074C8F090026E7401F090017912154B22DF
:1012E000900252E0FBA3E0FAA3E0F9120982FFAEFC
:1012F000F090024CE0FBA3E0FAA3E0F9020982902F
:10130000026FA3A3E0F9A3E0FF900252E0FBA3E089
:10131000FAA3E022C8ECC8C9EDC9CAEECACBEFCB2C
:10132000E0FEA3E0FFE4FCFDEB2FFFEA3EFEED391B
:10133000FDEC38FC22E4FCFDE0F8A3E0F9A3E0FAC0
:10134000A3E0227A0079607E007F0B7D007B0002A3
:101350000B89C3FF9002BCE09F9002BBE095F02296
:1013600043AB0A5389F55395F55396F522C98FF08F
:101370000209E57F087A02796F7E007D007B010219
:101380000B899002D9E0FEA3E0FF222FFFEA3EFE88
:10139000E93DFDE83CFCE4FAF9F8020A40A3F0A3B9
:1013A0007401F0A322E50A25E02428F8E6FE08E609
:1013B00022A3E0FEA3E0FBCAEECAE4F9F822900201
:1013C000C3E4F0A3F0A3F0A322F09001777402F03D
:1013D000A37458F022902E12E0FEA3E0FF7C007D63
:1013E0000A120924EF2444FFEE34FD22CAEECAE0BB
:1013F000FEA3E0FFEB2FFFEA3EFEE433FDE433FC07
:101400007801229002BBE0FEA3E0FFD39400EE94AB
:101410000022E50D25E024A8F582E43402F583E0FE
:10142000FEA3E0FF2290024AE0FCA3E0FD2290022E
:10143000DAE094649002D9E09400229002D7A3A34A
:10144000E0F9A3E0FF90024C22E0FCA3E0FDA3E062
:10145000FEA3E022F07E007F077D007B007A00790A
:1014600059020B89F9E4F5F00209E5FFE5F0F0A374
:10147000EFF022902E247401F0902E27741AF09031
:101480002E2322F9EE8FF00209E5E4F50EF50DF5B5
:101490000CF50B22C39FFFE5F09E22120B5CC8ECFB
:1014A000C8C9EDC9CAEECACBEFCB2290001BE064DD
:1014B0002022D3EF9428EE64809480229002DDE015
:1014C000FEA3E0FFD39450EE940022E0FCA3E0FDE5
:1014D000C3EF9DFFEE9CFE22AB0EAA0DA90CA80B3C
:1014E000D3020AE89002DCE0940A9002DBE0940068
:1014F0002290024AE0FFA3E09002AECF22E03CF04F
:10150000902E20E4F00FEF229002A0E566F0A3E514
:1015100067F02225E02428F8A60F08A610229002E2
:10152000D9E550F0A3E551F022E490017DF0A3F05D
:1015300022F9746175F0A80209E590003A7410F080
:1015400022F0A3F0900185F0A3F022E4F0A374C888
:10155000F022902E207409F022E0FEA3E07802220F
:10156000FFC3ED9FFFEC95F0FE22C3EF9464EE64A1
:1015700080948022EE3395E0FDFC222551F55174D4
:10158000FF22F974FF75F0F90209ADC3E5589571B2
:10159000E5579570229002D7020B1F9002BF1213DD
:1015A00038FB9001AC1213209002BF120B1F900267
:1015B000C4E004F070069002C3E004F09002C5E0BD
:1015C0007002A3E060030217959002BF121449FF56
:1015D000EEC0E0EFC0E01213B1D0E0FFD0E0FE12A9
:1015E0000A409002BF120B1F9002BFA3A3E0FFA30B
:1015F000E09002BDCFF0A3EFF0A3120B2B00000090
:10160000001213BE74C8F0900175E07002A3E06090
:101610000302179590026DE070030216C79002B99D
:10162000E0FEA3E0FF4E70229002BDE0FDA3E0903B
:1016300002B9CDF0A3EDF090024F1212F4FD90022A
:10164000BBE5F0F0A3EDF00216D39002BD1214CB6F
:10165000122FC39002C912130C1214839002B7E028
:1016600070269002C91212F4C3940FE5F094005052
:101670000F90024F1212F4FF9002BB12146C8023E1
:101680009002B77401F0801B9002C91212F4C39447
:1016900002E5F09400500CE49002B91213C2F090ED
:1016A00002B7F09002BDE0FEA3E0FFD39002BAE0E3
:1016B0009F9002B9E09E4007E49002B8F080149039
:1016C00002B87401F0800CE49002B91213C2F090D9
:1016D00002B7F09002B7E07003021795121403509E
:1016E0000302179590024F1212F4121494FE122F57
:1016F000C39002D9EEF0A3EFF09002CDF090024F2C
:101700001212F4FFAEF09002BBE0FCA3E0FDD39F09
:10171000EC9E4006D312142E500CC3ED9FEC9E504D
:101720002B12142E4026E49002B7F09002B9F0A3D9
:10173000F090024F1212F4121352400A9002C77432
:1017400001F0A37490F0E49002B8F0229002C7E098
:101750007002A3E0701E90024F1212F4D3121353C2
:101760004012D39002DAE0940A12143440061213A5
:101770000912158290024F1212F412135250169051
:1017800002DAE0940A121434400B121309F9E475DA
:10179000F0071209AD229002B0E0FEA3E0FFC3946F
:1017A00004EE9400502A121425EF25E0FFEE33FEDC
:1017B00074A82FF58274023EF583ECF0A3EDF0904F
:1017C00002B1E004F070069002B0E004F00218FFED
:1017D000750D01121412E50D25E024A6F582E434FE
:1017E00002F583EEF0A3EFF0050DE50DB404E490EF
:1017F000026DE070030218AA9002521212F4FFAEBA
:10180000F0121425D39FEC9E50030218F8ED9FFFB1
:10181000EC9EFED3EF94F4EE940150030218F8A36B
:101820001212F41215609002DCF0A3EFF0122FC335
:1018300012156A505DE49002DEF0A3F09002DCE045
:10184000FEA3E0FF122FC31214B24025D39002DD95
:10185000E094009002DCE0648094809002DE400816
:10186000E4F0A37405F0801074FFF0A374FBF08023
:1018700007E49002DEF0A3F01212F1FF9002DFE025
:101880002FFE9002DEE035F09002AEF0A3CEF00223
:1018900018FF1214F1F0A3EFF09002D3E004F070FF
:1018A000069002D2E004F00218FF1212F1FF1214A7
:1018B00025C3EF9DFFE5F09CFE122FC3C31214B3A6
:1018C00050369002521212F4FFC390024BE09FFF79
:1018D00090024AE095F0FE122FC3C3EF9414EE6419
:1018E0008094805005900252800390024C1212F4B2
:1018F000FF9002AEE5F080031214F1F0A3EFF0E4E4
:10190000F50CF50BF50AF509F50DD39002B1E0954C
:101910000D9002B0E09400401E121412E4FCFDE5AC
:101920000C2FF50CE50B3EF50BED350AF50AEC3501
:1019300009F509050D80D3AF0CAE0BAD0AAC09EE6D
:10194000C0E0EFC0E09002B01213B2D0E0FFD0E0F0
:10195000FE120A408F0C8E0B8D0A8C0922C0E0C04B
:1019600083C082C0D0D2AF90018AE004F0E5792430
:1019700001F579E43578F578E43577F577E435766F
:10198000F576D3900176E09400900175E0940040E4
:101990000CA3E024FFF0900175E034FFF0D3900138
:1019A00078E09400900177E09400400CA3E024FFDD
:1019B000F0900177E034FFF0D390017AE09400904A
:1019C0000179E09400400CA3E024FFF0900179E05D
:1019D00034FFF0D390017CE0940090017BE0940010
:1019E000400CA3E024FFF090017BE034FFF0D390A3
:1019F000017EE0940090017DE09400400CA3E0247F
:101A0000FFF090017DE034FFF0D3900188E0940076
:101A1000900187E09400400CA3E024FFF090018740
:101A2000E034FFF0D3900186E09400900185E094CB
:101A300000400CA3E024FFF0900185E034FFF0D3D8
:101A4000900180E0940090017FE09400400CA3E0BE
:101A500024FFF090017FE034FFF0C3E56994E8E5EE
:101A600068940350080569E56970020568C3E55389
:101A700094D0E552940750080553E553700205527F
:101A8000D39002C6E094009002C5E09400400CA3FD
:101A9000E024FFF09002C5E034FFF0D39002C8E0EC
:101AA00094009002C7E09400400CA3E024FFF09063
:101AB00002C7E034FFF0D39002A5E094019002A4A5
:101AC000E09400400CA3E024FFF09002A4E034FF77
:101AD000F0D3900182E09400900181E09400400CEA
:101AE000A3E024FFF0900181E034FFF0D39002D115
:101AF000E094009002D0E09400400CA3E024FFF0BA
:101B00009002D0E034FFF0D0D0D082D083D0E03249
:101B10001223E3E527240CFFE52634FEFEC39002E2
:101B200045E09F900244E09E50159002A4E07002B0
:101B3000A3E070129002A404F0A374F4F08007E410
:101B40009002A4F0A3F090029C12140640337C0093
:101B50007D03120B5C9002481213147802120AF9EA
:101B6000900248EEF0A3EFF090029EE0FEA3E0FBAF
:101B70009002441213EC120AF9900244EEF0A3EF23
:101B8000F0900245E02527FF900244E03526FE90C4
:101B900002481214CBE5272488FBE5263413FAD338
:101BA000EF9BEE9A4006CEEACECFEBCF90029AEEB4
:101BB000F0A3EFF0A3ECF0A3EDF0900244E0FDA35E
:101BC000E090029ECDF0A3EDF01223139002A0EE60
:101BD000F0A3EFF090001BE0B42003121343900237
:101BE000A0E0FEA3E0FFE4FCFDE5632FF563E56202
:101BF0003EF562ED3561F561EC3560F5600565E552
:101C00006570020564C3E56994E8E5689403402AB9
:101C1000AE64AF65CBEFCB1213B7AF63AE62AD610D
:101C2000AC60120A408E668F67E4F563F562F56179
:101C3000F560F564F565F568F569D3E5679400E549
:101C400066940040599002A1E09567FF9002A0E0E1
:101C50009566FE9002DDF0A3EFF0D394F9EE648078
:101C6000947F4015E094079002DDE06480948050FA
:101C700008121508E4F56A80259002DDE0FEA3E075
:101C8000FF122FC3D3EF940FEE648094804003754E
:101C90006A03E56AC394035005121508056A9002A9
:101CA000A0E0F548A3E0F54978287C007D007B00A2
:101CB0007A00792A7E007F200208FE7E007FFF7D69
:101CC000007B017A007904120B899002E57400F020
:101CD000A37404F09001287401F0A37400F0A374BD
:101CE000B8F090012E7401F0A37400F074AC122BC4
:101CF000EF7400F0A37494F090012B7401F0A374BE
:101D000000F0A374C6F09001347401F0A37400F0E5
:101D100074D2122BEF7400F0A3741F122BF0740115
:101D2000F0A37402F0902DE0E493FF9002E5E0FC54
:101D3000A3E0FDF5828C83A3EFF0900002E0FFEDBD
:101D40002404122BD5900001E0FFED2405122BD5C1
:101D5000900003E0FFED2406122BD5902DE2E493D2
:101D6000FFED2412122BD5902DE3E493FFED241404
:101D7000122BD590013D7401F0A37400F0A3743CC4
:101D8000F0E4FF75F002EFA42401F582E5F0342EB3
:101D9000F583E493FE74542FF582E43400F583EE6A
:101DA000F0EF25E02423F582E4342EF583E493FE5E
:101DB000122BF7EEF0122BF7E0FEEF25E02422F5D0
:101DC00082E4342EF583E4932420F582E4342EF566
:101DD00083EEF00FEFB411AB902F56E0900058F067
:101DE000902F56E090006AF09000FF7401F0900090
:101DF000FEF090003A7410F090001BF0900028F074
:101E0000A37420F09001757407F0A374D0F022122F
:101E1000148AF515F516852811852912852813854C
:101E20002914F50A1213A5FFD3E5149FE5139E406C
:101E3000078E138F14850A16C3E5129FE5119E5075
:101E4000078E118F12850A15050AE50AB410D5E42C
:101E5000F50FF510F50AE516650A6034E515650A13
:101E6000602EE510450F7010E50A25E02428F8E6FD
:101E7000F50F08E6F51080181213A52510FFE50FE1
:101E80003EFEEF2401FFE43EC313F50FEF13F51000
:101E9000050AE50AB410BF9002B4E50FF0A3E510FF
:101EA000F0E516C3940D5005E516121513E515C39C
:101EB000940D5005E51512151312148AF50A121324
:101EC000A5FFC3E5109FFFE50F9EFE122FC312145E
:101ED000B2400FE4FCFDE50E2510F50EE50D350FC3
:101EE000800F1213A5FFE4FCFDE50E2FF50EE50DA6
:101EF0003EF50DED350CF50CEC350BF50B050AE553
:101F00000AC3941040B8AF6FAE6EAD6DAC6C1214D6
:101F1000D8401AE50E956FF50EE50D956EF50DE5B9
:101F20000C956DF50CE50B956CF50B800312148A7E
:101F3000E47F607EEAFDFC1214D8400BE4750E606D
:101F4000750DEAF50CF50BAE0DAF0E22C0E0C083A7
:101F5000C082C0D075D018D2AFE5DB30E419D20C06
:101F6000C208E5DB30E102802E9002E4E5DFF0906C
:101F700002E7E4F0022041E5DB30E50FD20630084D
:101F800005C208022041C20C022041C208E5DB3034
:101F9000E13AE5DB30E0109002E8E0FF04F0122FB8
:101FA0007EE0F5DF0220419002E8E0FFB408132054
:101FB0008A10D28A9002E5E0FCA3E02407122F8465
:101FC000E4F0EF641A707AD2070220419002E7E051
:101FD000700EA3E5DFF09002E77401F0D208806193
:101FE0009002E8E0902CE593FFB4FF089002E4E54E
:101FF000DFF08047EF640F70299002E8E0FFA3E074
:10200000FCA3E0FD122F83E0540FF09002E8E0FF04
:1020100004F0ED122F83E0FFE5DF54F0FEEF4EF009
:10202000801F9002E8E0FF122F7EE5DFF0EFB4247E
:102030000A9001777401F0A374F4F09002E8E004D0
:10204000F075DBFFD0D0D082D083D0E03290026D2B
:10205000E0600612137302213590026F121338FBF1
:10206000E9C0E0EAC0E0EBC0E01212F1FFE4FCFDE1
:10207000D0E0FBD0E0FAD0E0F9EB2FFFEA35F01228
:10208000132D90026F120B1F900274E004F0700683
:10209000900273E004F0900179E07002A3E0600325
:1020A00002213F90026F121449FFEEC0E0EFC0E042
:1020B0001213B1D0E0FFD0E0FE120A4090026F127E
:1020C0000B1F9002521212F42432FFE435F0FE90FE
:1020D000026F121335FBD3120AE84039900175E004
:1020E0007002A3E0702F200B2C900276E004F070B9
:1020F00006900275E004F0D3900276E09405900219
:1021000075E09400401E1212FF12136DE4900275E8
:10211000F0A3F0800F1212FF12136DE4900275F01D
:10212000A3F0C20B90026F120B2B00000000E49092
:102130000273F0A3F09001797402F0A374BCF02252
:102140009001C2E0FEA3E0FFC39001ABE09FFF90CF
:1021500001AAE09EFE122FC3D3EF940AEE6480948E
:102160008040209001A2120B2B00000000E490019F
:10217000A6F0A3F09001C2E0FFA3E09001AACFF087
:10218000A3EFF09001A212298E9001C2122948906B
:1021900001A2120B1F9001A7E004F070069001A6A7
:1021A000E004F09001A6E0FEA3E0FFD3940AEE94D1
:1021B000004031CBEFCBCAEECAE4F9F89001A2128D
:1021C0002982120A409001A8EEF0A3EFF0A3EEF0EE
:1021D000A3EFF09001A2120B2B00000000E490018D
:1021E000A6F0A3F0D39001A9E094009001A8E09498
:1021F0000040309001ACE0FEA3E0FF7C007D0312C4
:102200000B5CC8ECC8C9EDC9CAEECACBEFCB9001D4
:10221000A8122948E47B04FAF9F8120A409001ACAC
:10222000EE800B9001C2E0FFA3E09001ACCFF0A3E1
:10223000EFF0229002DDEFF0122BC67402F0A3E45F
:10224000F0902E2204F0A3E04401F0E49002DEF0CE
:10225000A3F09002DEE0FEA3E0FFC3940AEE940038
:102260004003022310EF9408EE940040067E007FA6
:102270000180199002DEA3E004FFE47E02C8EFC8EB
:10228000088006CEA2E713CE13D8F8FF9002E0EE46
:10229000F0A3EFF0902E207409F0902E20E030E2B1
:1022A000F99002DDE0FF75F002A42400122BCCE0CF
:1022B000FCA3E0FD902E20E4F0D3ED94FEEC940717
:1022C00040179002E0E0FCA3E0FD75F002EF122B56
:1022D000C9EC8DF012096C80269002DDE0122BC64D
:1022E000C083C082E0FEA3E0FF9002E0E0FCA3E038
:1022F000FDC3EF9DFFEE9CD082D083F0A3EFF09062
:1023000002DFE004F070069002DEE004F0022252E8
:102310007F00229002DFEEF0A3EFF0E4FFFEFDFC71
:10232000AB5EAA5DA95CA85BC3120AE89002DF70ED
:1023300010E0FEA3E0FFE48F5E8E5DF55CF55B8050
:102340002FE0FEA3E0FFEF255EFFEE355DFEE435F6
:102350005CFDE4355BFCEF2401FFE43EFEE43DFD63
:10236000E43CFC7801120AF98F5E8E5D8D5C8C5B1B
:10237000055FE55FD3940A4011855D59855E5AE497
:10238000F55EF55DF55CF55BF55FD3E55A9400E528
:1023900059940040459002E0E0955AFF9002DFE03A
:1023A0009559FE122FC3C3EF940AEE64809480AE59
:1023B00059AF5A50117C007D03120B5C9002DF1262
:1023C000131478028009CBEFCB9002DF1213EC12CA
:1023D0000AF99002DFEEF0A3EFF09002DFE0FEA337
:1023E000E0FF22E4900244F0A3F0900248F0A3F052
:1023F0001223FF1223FF1223FF1223FF1223FF12C7
:102400001360E4900246F0A3F09002D5F0A3F0FF31
:10241000120803121552902E20E030E2F9902E029D
:10242000E0FCA3E0FD900247E02DF090024612147C
:10243000FDB403DCE4FF122FD8121552902E20E0D9
:1024400030E2F9902E0EE0FCA3E0FD9002D6E02DE4
:10245000F09002D51214FDB403DC90024612155917
:10246000CEC313CE13D8F9FF900245E02FF09002AF
:1024700044E03EF09002D5121559CEC313CE13D8C6
:10248000F9FF900249E02FF0900248E03EF0902ED4
:1024900023E4F0902E20F043890A12136643800A49
:1024A000227F8A7A02794A12137990024C7401F0E1
:1024B000A37400F0744412139D7400F07446121358
:1024C0009D7400F0A3744812139E7400F0A374323C
:1024D00012139E7400F0A3742E12139E7400F0A3C6
:1024E000742CF09002677401F0A37400F0A37426BA
:1024F000F09002C97401F0A37400F0A37484F0900A
:10250000026A7401F0A37400F0A3741CF090025EE0
:102510007401F0A37400F0A3743612139E7400F0DB
:10252000A3742A12139E7400F0A37438F07574001B
:102530007575C890025E12130CF9E5748575F0127A
:1025400009E590026112130CF9E475F0641209E5D3
:1025500090026412130CF9E475F0960209E59002FA
:10256000D9EEF0A3EF1214549002D9E07002A3E068
:102570006003122745E49002B0F0A3F07F10122E02
:10258000441213CAA37402F0A374BCF090024AE090
:10259000F9A3E0FFA312130C12136D90024F121354
:1025A0000C12146490025512130C1215319002583B
:1025B00012130C12146490025B12130C12153112D8
:1025C000153AE490026DF090026F120B2B000000A0
:1025D000009002731213C1F090024A1213041213F6
:1025E0006DE490026EF0900187121541900181F028
:1025F000A3F0FE7F12FD7B017A0279B7120B89905E
:1026000002671212F49002BD12146B9002C51215EB
:102610004B22D3900176E09400900175E094004045
:10262000030226B530001A9002D0E07002A3E060E9
:1026300008757427757510800E75741B7575588034
:10264000067574007575C890024F1212F4FFAEF053
:10265000C39575EE9574501590026DE06020900260
:10266000641212F4FDC3EF9DEE95F0401190017DD0
:10267000E07002A3E0702790026D04F080209000CB
:102680001BE0B42005121529800690017D12154B20
:10269000E490026DF090017BF0A3F012153A9002E5
:1026A0006DE06011900028E090003AB410047410BE
:1026B000F0227420F022787FE4F6D8FD758179024B
:1026C0002700020000022D1BE493A3F8E493A3402B
:1026D00003F68001F208DFF48029E493A3F854079D
:1026E000240CC8C333C4540F4420C8834004F45698
:1026F000800146F6DFE4800B0102040810204080D0
:102700009027D3E47E019360BCA3FF543F30E509DA
:10271000541FFEE493A360010ECF54C025E060A8CF
:1027200040B8E493A3FAE493A3F8E493A3C8C58262
:10273000C8CAC583CAF0A3C8C582C8CAC583CADFD0
:10274000E9DEE780BE7F01122DB6902E12E0FEA3D7
:10275000E024D3FFEE34FC9002DBF0A3EFF0121381
:1027600060122D4F120803902E227401F0121552A0
:10277000902E20E030E2F9902E02121559CEC313AC
:10278000CE13D8F9FF7C007D121209248E268F27E4
:102790007D10120B5CEF24E0F56FEE34B1F56EEDB9
:1027A00034FFF56DEC34FFF56C902E20E4F0438996
:1027B0000A12136643800A902E23F0900243E090A1
:1027C0000021F01213D5F990026A12130CC98FF090
:1027D0000209E5C10C41019A0041019B004101A1A0
:1027E000004101970041019F00C102C101C10441A4
:1027F00001A00041019600C103C100C1054102E7EB
:10280000004102E8004202E20000C106C108C1071F
:102810004102E4104102410041024310C10BC10AD0
:102820004102D40002260000046C00000000016B8D
:1028300000410242104101AF000476000000004157
:1028400001AE00410232004201C2000044023300E6
:102850000000004201AC00004102370000900196E8
:10286000E014601B1460432402705D9001A0E0B48A
:10287000010A9001961228C9D205D200C203227F14
:1028800002122C75EF60077F02122FCFC205900154
:10289000A0E070349001967402F0D203C205C20029
:1028A0007F03122FCF7F03022EF77F03122C75EFC9
:1028B00060167F03122FCF9001A0E0900196700365
:1028C000F080031228C9C203227401F07F02122F84
:1028D000CF7F02122EF722E4F5B275B6FF75B7FF6F
:1028E000122FB69002377401F0E5A830E2030080A1
:1028F000F89001AEE0FFE4FCFDFE12297812298277
:102900007808120B0C12297812298E900232E0FFFF
:10291000EB4FFFEAFEE9FDE8FCA312297BA3A3E04D
:10292000FFA3E09001C2CFF0A3EFF0538BEF53A8C9
:10293000FBE4F5B2122F64022140CBEFCB74382BAD
:10294000F582E43402F58322E0FEA3E0FFE4FCFD1F
:10295000EB2FFFEA3EFEED39FDEC38FC22FEEB25C5
:10296000E024B0F582E43401F58322EB25E024363F
:10297000F582E4342FF58322900233120B1F90026C
:102980003322E0FCA3E0FDA3E0FEA3E0FF22E0F899
:10299000A3E0F9A3E0FAA3E0FB22200A0620030348
:1029A000300509E4FFFE12255EC20A22900185E08F
:1029B0007002A3E060051214AB7037200003122CE4
:1029C0003D7F01122E441217969002D7EEF0A3EF2E
:1029D000F07B017A0279D7122B839002D712144030
:1029E00012130C12136D120C0A12261212159B12DE
:1029F000204D122C0222122BE7F5828E83A3E0B425
:102A0000AA03122AA5122BE7FF122BDEE0B410084E
:102A1000EF122BDEE4F0D20A122BE7FF241B122B5D
:102A2000E0E0700DEF241C122BE0E0B41003122B39
:102A300040122BE72413122BE0E0FFB410069001A4
:102A4000A07401F0EFB42005E49001A0F022900101
:102A500074E024FE60131460231460272403704480
:102A60009001747402F012080E7F017E0012255E40
:102A70009001747403F0E4900197F0229001747453
:102A800004F02212285D122AF812285D9002A4E0B8
:102A90007004A3E06401700C9002A4F0A3F0900114
:102AA000747402F0229002D77408F0A3E4F0A374C7
:102AB0003FF0A374DFF0E4FDFCF9009002D7E0FEE4
:102AC000A3E02DF582EE3CF583E493FF69F90DBD9B
:102AD00000010CBC37E5BDDFE29002D9122F8BE478
:102AE00093699002E57009122F8BA37408F0800699
:102AF000122F8BA3E4F000221214AB70299002D4A1
:102B0000E070031213CA9002D47401F0900029E01F
:102B1000B4200812299A120F7A8003122E9F900176
:102B2000897401F08017E49002D4F0900029E0B499
:102B3000200312299A900189E06002E4F0022F64D8
:102B4000122DE4E4F5F275F30875EEFF75EF3F75AD
:102B5000EA81F5F675EB0700E5EC30E7FBE4F5EC10
:102B60009002E5E0FEA3E0FF241BF582E43EF5833E
:102B7000E5F3F0EF241CF582E43EF583E5F2F07511
:102B8000EB30229002D9EBF0A3EAF0A3E9F0900138
:102B900077E07002A3E0702D90026EE06027E49071
:102BA000026E1213C97508017F01122E4412179686
:102BB0009002D912130C1214830508E508C394106F
:102BC00040E61215292275F002A42410F582E5F0E2
:102BD000342EF58322F582E43CF583EFF022241AAB
:102BE000F582E43EF583229002E5E0FEA3E022A315
:102BF000F0A37401F0A32274662FF582E43400F58B
:102C0000832290003AE0FC900242E06C602E90003B
:102C10003AE0FE900242F090000BE090019FF054E9
:102C20000FF0EEB42005E04420800AECB4100B90C5
:102C3000019FE04410F090000BF0C28A223007346C
:102C4000C207902E12E0FFA3E09002D9CFF0A3EFCD
:102C5000F0E4FF122DB61213D5FE90026A12130C87
:102C60001214839002D9E0FFA3E0902E12CFF0A3BC
:102C7000EF1213C92212293AE0602FE579FFE578B7
:102C800012295DE0FCA3E0FDD39FEC9E501CC3EF36
:102C90009DFFEE9CFE12296BC37401939FE4939EEB
:102CA000400812293DE4F07F01227F0022C0E0C0ED
:102CB00083C082900237E06013E4F075B2A243B2A1
:102CC00001538B7F758B11438B088012538B7F537D
:102CD000A8FBE5B59001AEF0E5B4900232F0D082E9
:102CE000D083D0E03200000000FFFFFFFF0000FFB4
:102CF000FFFFFFFFFFFFFFFF00FF000000FFFF00DF
:102D00000000FFFFFFFFFFFFFF00000000FFFFFFCD
:102D1000FFFFFFFFFFFFFF0000000053A87F122E00
:102D200072122FA9122ECC122F9443A8801228D7EA
:102D30009000FFE0600B9001747401F0E49000FFDC
:102D4000F0122F481229F6122A4E1228D780E1904D
:102D50002E23E4F0FF74542FF582E43400F583E071
:102D6000FE75F002EFA42400F582E5F0342EF58321
:102D7000E4932420F582E4342EF583EEF00FEFB4D3
:102D800011D322E4FEE4FFEF75F003A424C4F5821E
:102D9000E43401F583E5822EF582E43583F583E49E
:102DA000F00FEFB40AE10EEEB403DA7F09900238B7
:102DB000E4F0A3DFFC22CDEFCD121360122D4FED16
:102DC0006008122FD87F071222331208037F0112E6
:102DD000223343890A12136643800A22000000004E
:102DE0000804AB6674AA7583F5758255A57455758C
:102DF00083FA7582AAA574A57583F5758255A522F7
:102E000001110201071A0AB00BB60CFF090008FFF6
:102E10000D770E060F040401110E120A1307141089
:102E200010100111020607100A100B800CFF090296
:102E300008FF0DF40E040F04040111101204130313
:102E4000142010209002DCEFF0122D4FE4F50990D1
:102E500002DCE0FFE509C39F5007121B1005098043
:102E6000EE902E20E4F0121E0F90024AEEF0A3EF37
:102E7000F022758A10E4F58F9000027411F0900032
:102E8000017422F09000037433F0E4F5AB75AC0FDD
:102E90007589FF75913FF595F592D28AD20D22E49E
:102EA000F5B2F5BA758D20438D20538D7F53AAF767
:102EB000F58BE5DB20E211200C0EE4F58A75870323
:102EC000000000758A10D20A758B11229002E5E08D
:102ED000FFA3E09002E9CFF0A3EFF0E4F5DA75DAB2
:102EE0004043DA2075D74075DA5875D90143A802F6
:102EF00075B80475F8042212293AE060037F0122B4
:102F000012293D7401F012296BE493FE740193FFC2
:102F1000EF2579FFEE357812295DEEF0A3EFF07F13
:102F2000002201F40028002801F4009603E801F4CF
:102F300003E81770006403E8003202580258012CBD
:102F400001F403E8271000C8E4FF3006169002E5FC
:102F5000E0FCA3E0F5828C83E0FE54F0FFEE540F1A
:102F6000F0C20622E5B230E005E5A820E40F75B214
:102F70009275B6F9E4F5B743B20143A81022A3E075
:102F8000FCA3E02FF582E43CF58322E0FEA3E0F50C
:102F9000828E83227E007F0A7D007B017A0179A2E6
:102FA000120B89120826022D83121CBB1224A19039
:102FB00001747401F022538B7FE4F58B438B08433B
:102FC000A80422EE30E707C3E49FFFE49EFE2274CC
:102FD000382F122940E4F0221214737480F022007A
:102FE00000000000000000000000000000000000E1
:102FF00000000000000000000000000000000000D1
:1030000000000000000000000000000000000000C0
:1030100000000000000000000000000000000000B0
:103FD000000000000000000000000000000000D20F
:103FE00000000000000000000000000000000000D1
:103FF00000000000000000000000000000000000C1
:00000001FF
