:100000000068000000120000DA8600000000000016
:1000100000000000000000000000000000000000E0
:1000200078FFE4B8200118F6D8F99000007F007E30
:1000300007E4F0A3DFFCDEFA75817A0223C4121A0A
:10004000C712208E9002117401F022022C9A74AA19
:100050007583F5758255A574557583FA7582AAA5C1
:1000600074A57583F5758255A52200021E86904001
:100070007FE493FF64326003EF7002002253A87F95
:100080000080FD0219441210CF902EC27412F07439
:100090000F121180E4F0A37402F022022C97E709FA
:1000A000F608DFFA8046E709F208DFFA803E888228
:1000B0008C83E709F0A3DFFA8032E309F608DFFA60
:1000C0008078E309F208DFFA807088828C83E30984
:1000D000F0A3DFFA806489828A83E0A3F608DFFA5E
:1000E000805889828A83E0A3F208DFFA804C80D2AC
:1000F00080FA80C680D4806980F28033801080A628
:1001000080EA809A80A880DA80E280CA803389827F
:100110008A83ECFAE493A3C8C582C8CCC583CCF02B
:10012000A3C8C582C8CCC583CCDFE9DEE7800D89D2
:10013000828A83E493A3F608DFF9ECFAA9F0EDFBD9
:100140002289828A83ECFAE0A3C8C582C8CCC58321
:10015000CCF0A3C8C582C8CCC583CCDFEADEE8807A
:10016000DB89828A83E493A3F208DFF980CC88F0EC
:10017000EF60010E4E60C388F0ED2402B40400501D
:10018000B9F582EB2402B4040050AF232345822347
:100190009008CE73EF8DF0A4A8F0CF8CF0A428CEF9
:1001A0008DF0A42EFE22C2D5EC30E709B2D5E4C30F
:1001B0009DFDE49CFCEE30E715B2D5E4C39FFFE45F
:1001C0009EFE120BF2C3E49DFDE49CFC8003120B27
:1001D000F230D507C3E49FFFE49EFE22C5F0F8A3EA
:1001E000E028F0C5F0F8E582158270021583E0384A
:1001F000F022BB010A89828A83E0F5F0A3E0225055
:100200000687F009E71922BBFE07E3F5F009E319B9
:100210002289828A83E493F5F074019322BB01075B
:1002200089828A830209BC500B09C5F027F7C5F003
:100230001937F722BBFE0D09F8E325F0F3C5F019D5
:10024000E338F322F889828A8374019325F0C5F09C
:10025000F8E4933822BB010A89828A83F0E5F0A38F
:10026000F0225006F709A7F01922BBFE06F3E5F0CD
:1002700009F3192275F008758200EF2FFFEE33FEA7
:10028000CD33CDCC33CCC58233C5829BED9AEC996E
:10029000E58298400CF582EE9BFEED9AFDEC99FC10
:1002A0000FD5F0D6E4CEFBE4CDFAE4CCF9A8822257
:1002B000B800C1B90059BA002DEC8BF084CFCECD77
:1002C000FCE5F0CBF97818EF2FFFEE33FEED33FDB0
:1002D000EC33FCEB33FB10D703994004EB99FB0F95
:1002E000D8E5E4F9FA227818EF2FFFEE33FEED336C
:1002F000FDEC33FCC933C910D7059BE99A4007ECE4
:100300009BFCE99AF90FD8E0E4C9FAE4CCFB22752A
:10031000F010EF2FFFEE33FEED33FDCC33CCC833BE
:10032000C810D7079BEC9AE899400AED9BFDEC9A20
:10033000FCE899F80FD5F0DAE4CDFBE4CCFAE4C898
:10034000F922EB9FF5F0EA9E42F0E99D42F0EC6461
:1003500080C864809845F022EB9FF5F0EA9E42F059
:10036000E99D42F0E89C45F022E8600FECC313FCE5
:10037000ED13FDEE13FEEF13FFD8F122ECF0A3ED29
:10038000F0A3EEF0A3EFF022A8828583F0D083D013
:1003900082120B7F120B7F120B7F120B7FE473E430
:1003A00093A3C583C5F0C583C8C582C8F0A3C58320
:1003B000C5F0C583C8C582C822EC8EF0A4CCC5F0B8
:1003C000CCCDF8EFA4CEC5F02DFDE43CFCE8A42E86
:1003D000C8C5F03DFDE43CFCEFA4FFE5F028FEE4D9
:1003E0003DFDE43CFC22EF4E6012EF60010EEDBBE0
:1003F000010B89828A83F0A3DFFCDEFA2289F050A8
:1004000007F709DFFCA9F022BBFEFCF309DFFCA91A
:10041000F022BC000BBE0029EF8DF084FFADF0226E
:10042000E4CCF875F008EF2FFFEE33FEEC33FCEE72
:100430009DEC984005FCEE9DFE0FD5F0E9E4CEFD65
:1004400022EDF8F5F0EE8420D21CFEADF075F00838
:10045000EF2FFFED33FD4007985006D5F0F222C391
:1004600098FD0FD5F0EA22208A03020FD1900214E2
:10047000E07002A3E06003020FD1900171E070020E
:10048000A3E06003020FD11211606003020FD1904C
:100490000132E0703090011D120FE6FFAEF09001C6
:1004A0000B120FE6D39FE5F09E4003020FD112100E
:1004B00070E490017DF0A3F01211CC90021812119B
:1004C000E3F5758003757500757614E4F5B2F5BA39
:1004D000900181E0F55DA3E0F55EC209758D2043D2
:1004E0008D20758D8043AA08D2AF758B02758EAFB3
:1004F000200624121160701F200C1CE5DB20E2177F
:10050000758AC4200C0DE5DB20E208758703000026
:10051000008006D2098002D209758B11758A50536A
:10052000AAF7D3900213E09490900212E094014055
:100530000EA3E02470F0900212E034FEF08007E495
:10054000900212F0A3F0D390021FE0949090021E4C
:10055000E09401400EA3E02470F090021EE034FE0F
:10056000F08007E490021EF0A3F0122A00900055DC
:10057000E075F006A4902EC3F0A3E4F0A3F01210EF
:100580002353997F1208661210D9902EC0E030E2F2
:10059000F9902EC0E4F0902E02E0F577A3E0F57814
:1005A0004389021210294380021210D6902EC0E017
:1005B00030E2F91211F7F522A3E0F523E5782527BB
:1005C000FFE5773526FEC3EF9523F525EE9522F559
:1005D000241211A9E5259FE5249E40048E248F2531
:1005E000902EC4E4F043998090016FE524F0A3E5D8
:1005F00025F0C3E55E9525FFE55D9524FE122C7878
:100600008E5F8F6012120A4003020FAAAE24AF253C
:100610007C007D14120B99121214AF74AE73AD727C
:10062000AC719002C4121009FBD3120B389002C4B3
:1006300040171211229574FFEE9573FEED9572FD31
:10064000EC9571FC1212148007120B680000000078
:10065000E47F607EEAFDFC9002C4121009FBD31215
:100660000B38400A9002C4120B680000EA60120FB7
:10067000E37D0912118E9002C41210097B0A121038
:100680005E121214900132E07042AE5DAF5EFC7DEE
:1006900009120B99C8ECC8C9EDC9CAEECACBEFCB99
:1006A000E4FCFDEB2525FFEA352412109DE47B0ACE
:1006B00012106A8E5D8F5E9002C4120FF4121058F1
:1006C000121109120FFE121058020FAA121109126C
:1006D0000FFE12105890010E120FE6FFAEF09002BE
:1006E000C4121006FBD3120B385003020FBA120FBC
:1006F000D2121159FEC3EF957AEE95795003020F8D
:10070000BA90010B120FE6FFAEF07C007D02120BD7
:1007100099C8ECC8EDC0E0EEC0E0EFC0E0120FD227
:10072000121159FEE4FCFDD0E0FBD0E0FAD0E0F974
:10073000EB2FFFEA3E12109DE47B0312106A90013A
:100740000B120FFE1210C890010B120FE6D394305B
:10075000E5F094754008747575F030120A35900113
:1007600084E06066121171406190010B120FE61275
:100770001159FE122C789002C8EEF0A3EFF0900110
:100780000B120FE6FFC312104C50199002C9E094EF
:100790001E9002C8E09400400B120FFBF9E475F0C4
:1007A000051209FD900185E0602090010B120FE613
:1007B00012104A4015D39002C9E094289002C8E074
:1007C00094004006120FFB12120120090D12120AAA
:1007D00050081211607003020CBC900183E00412F7
:1007E00011371210149001337401F0900216121197
:1007F000962290010EE0FBA3E0FAA3E0F91209D2E1
:10080000FFAEF0900108E0FBA3E0FAA3E0F90209D3
:10081000D2900134A3A3E0F9A3E0FF90010EE0FB26
:10082000A3E0FAA3E022E4FCFDE0F8A3E0F9A3E0F2
:10083000FAA3E0227A0079667E007F0B7D007B00C0
:10084000020BC643AB025389FD5395FD5396FD221F
:10085000C8ECC8C9EDC9CAEECACBEFCBE0FEA3E035
:10086000FF22A3F0A37401F0A322D3FF900189E03B
:100870009F900188E095F022C98FF0020A352FFF82
:10088000EA3EFEE93DFDE83CFCE4FAF9F8020A9094
:100890007F087A0179347E007D007B01020BC6E57A
:1008A0000A25E02428F8E6FE08E622A3F0A3740354
:1008B000F0A374E8F022F9EB2FFFEA35F0FEED39F2
:1008C000FDEC38FC22A3E0FEA3E0FBCAEECAE4F98B
:1008D000F822902E427D14E0FEA3E0FF7C00020986
:1008E00074F9E4F5F0020A35F9EE8FF0020A35905A
:1008F0002EC07402F022122C63902EC07419F022C4
:10090000E50D25E02475F582E43401F583E0FEA3CE
:10091000E0FF229002C6E0FEA3E0FF2290018AE001
:10092000FCA3E0FDC3EF9DFF229002C4A3A3E0F966
:10093000A3E0FF900108229002147402F0A37458FF
:10094000F022E0FCA3E0FDA3E0FEA3E022900186FC
:10095000F0A3F0A3F0A322F07E007F057D007B00D2
:100960007A007961020BC6FFE5F0F0A3EFF022E414
:10097000F50EF50DF50CF50B22C39FFFE5F09E2259
:1009800090001BE0642022D3EF9414EE64809480E6
:1009900022900188E0FEA3E0FFD39400EE940022B1
:1009A000902ECAF0902EC77401F0902EC422FFAE94
:1009B000F07C00020B99E4F0A374C8F022AB0EAAFD
:1009C0000DA90CA80BD3020B38E5272488FFE526D8
:1009D0003413FED32290016FE56CF0A3E56DF02295
:1009E00025E02428F8A60F08A61022E490021AF0A9
:1009F000A3F022F9746175F0A8020A3590003A74E8
:100A000010F022F0A3F0900220F0A3F022FEEF24D9
:100A100001FFE43EC31322902EC0E4F0902E1EE0AE
:100A200022F974FF75F0FB0209FDC3E5609576E5D8
:100A30005F9575229002C4020B5C120FD2FDACF0E0
:100A4000D39FEC9E403490010E120FE6FFC3ED9F42
:100A5000FFEC95F0FED3EF9430EE9475400D9002CC
:100A6000C67475F0A37430F002129D120FDD1211DE
:100A7000599002C6F0A3EFF08043120FE3FFAEF0EF
:100A800090010E120FE6FDACF0C39FFFEC9EFED36B
:100A9000EF9410EE9427400C9002C674D8F0A37423
:100AA000F0F08012120FE3FFC3ED9FFEEC95F09083
:100AB00002C6F0A3CEF0E49002C6F0A3F09001329B
:100AC000E060501210F3D39400EE64809480401ADA
:100AD000900120120FE6FDD3EF9DEE95F0400B90B4
:100AE0000218E4F0A37464F0801BD3900219E09420
:100AF00000900218E09400400C90010B120FE69059
:100B000002C6121147D20B90021E740FF0A374A0FC
:100B1000F0800D90021C12108E7A0079521210187B
:100B2000D39002C7E094009002C6E06480948050A5
:100B3000030213ECE0F9A3E0FF90010B120FFE1289
:100B400010581210F3EE3395E0FDFCE47BB87A8880
:100B5000F9F8C3120B22500A9002C67488F0A374ED
:100B6000B8F0D390021BE0940090021AE094005079
:100B70000790001BE0B4201D1210F3C39496EE649E
:100B80008094805010EF9400EE6480948040257C27
:100B9000007D0A801430001C1210F3C394A0EE6490
:100BA00080948F500F7C007D321209869002C6EE31
:100BB000F0A3EFF0900132E0603190021CE070028F
:100BC000A3E07027900114120FE67D0F12118E9092
:100BD00002C6121030EE3395E0FDFCEB7B101210D4
:100BE0005E900114120FFEF9EE800F9002C6E0F93C
:100BF000A3E0FF900114120FFEC98FF0120A359086
:100C00000114120FE624A8FFE5F0801D90010B12DD
:100C10000FFE1210C1900114120FFE1210C19002AB
:100C2000C7E024A8FF9002C6E03461F990011112D8
:100C30000FFE1210582290018C121009FBE9C0E03F
:100C4000EAC0E0EBC0E0900123120FE6FFE4FCFDF8
:100C5000D0E0FBD0E0FAD0E012109690018C120B9D
:100C60005C900191E004F07006900190E004F09037
:100C70000192E07002A3E060030215DE90018C1285
:100C80001122FFEEC0E0EFC0E01210A5D0E0FFD0CF
:100C9000E0FE120A9090018C120B5C90018CA3A3D1
:100CA000E0FFA3E090018ACFF0A3EFF0A3120B685E
:100CB00000000000E490019012113074C8F090021E
:100CC00012E07002A3E060030215DE900132E070D2
:100CD00003021570900186E0FEA3E0FF4E702290A3
:100CE000018AE0FDA3E0900186CDF0A3EDF0900134
:100CF0000B120FE6FD900188E5F0F0A3EDF0021570
:100D0000591210FCEE9CFE122C78900198120FFEE6
:100D10001210C8900184E07026900198120FE6C36B
:100D20009412E5F09400500F90010B120FE6FF9023
:100D3000018812114880209001847401F08018907D
:100D40000198120FE6C39402E5F094005009E412F2
:100D5000112DF0900184F090018AE0FEA3E0FFD312
:100D6000900187E09F900186E09E4007E490018516
:100D7000F080069001857401F0E4900194F0A3F0F6
:100D800090019EF090019B120FFE1210C10215DE21
:100D9000900194E0FEA3E0FF4E701290018AE0FD06
:100DA000A3E0900194CDF0ED12108B80511210FC55
:100DB000EE9CFE122C7890019B120FFE1210C89030
:100DC0000196E07002A3E0703590019B120FE6D30C
:100DD0009419E5F09400400C9001967413F0A374FC
:100DE00088F0800BE490019EF090019612108E9096
:100DF000018AE0FFA3E0900194CFF0A3EFF090010F
:100E000032E0700812112DF0900184F0221210CF00
:100E1000902EC4E4F0A3F053997FF50BF50CF50D7B
:100E2000F50EF50A1208661210231210D9902EC082
:100E3000E030E2F9902EC0E4F04389021210294319
:100E40008002902E02E0FEA3E0250CF50CEE350B9F
:100E5000F50B1210D6902EC0E030E2F91211F7FE19
:100E6000A3E0250EF50EEE350DF50D050AE50AC3D6
:100E7000940640B0439980902EC5E4F0E527240CF9
:100E8000FFE52634FEFED3EF950CEE950B40159052
:100E90000171E07002A3E0701290017104F0A3747C
:100EA000F4F08007E4900171F0A3F0E50C2527FF32
:100EB000E50B3526FEC3EF950EF510EE950DF50FFB
:100EC0001211A9E5109FE50F9E40048E0F8F109020
:100ED0000167E50FF0A3E510F090016BE50DF0A3BD
:100EE000E50EF0A3E50BF0A3E50CF0AF10AE0F128A
:100EF00022D590016FEEF0A3EFF090001BE0B4203C
:100F00000312101490016FE0FEA3E0FFE4FCFDE586
:100F1000692FF569E5683EF568ED3567F567EC35ED
:100F200066F566056BE56B7002056AC3E56F94E8CC
:100F3000E56E9403402AAE6AAF6BCBEFCB1210ABD9
:100F4000AF69AE68AD67AC66120A908E6C8F6DE4C7
:100F5000F569F568F567F566F56AF56BF56EF56F99
:100F6000D3E56D9400E56C94004053900170E095DA
:100F70006DFF90016FE0956CFE9002CAF0A3EFF058
:100F8000D394F9EE6480947F4015E094079002CAF0
:100F9000E06480948050081211B5E4F570801F90D1
:100FA00002CAE0FEA3E0FF122C781211674003751D
:100FB0007003E570C3940350051211B505709001DC
:100FC0006FE0F550A3E0F55178287C007D007B00B0
:100FD0007A00792A7E007F2802094E900132E07063
:100FE0000302185812107090021612108E9001848D
:100FF000E07003021943121171500302194390016A
:101000000B120FE6121159FE122C789002C6EEF068
:10101000A3EFF0D39496EE9400400CE4900184F09A
:10102000900186F0A3F022900185E0602090010BF2
:10103000120FE612104A4015D39002C7E094289090
:1010400002C6E094004006120FFB12120190010B41
:10105000120FE6C312104B40030219439002C7E07F
:10106000941E9002C6E094005003021943120FFB35
:10107000F9E475F0050209FD900134121009FBE94D
:10108000C0E0EAC0E0EBC0E0120FE3FFE4FCFDD0FB
:10109000E0FBD0E0FAD0E0121096900134120B5C25
:1010A000900139E004F07006900138E004F09002FD
:1010B00016E07002A3E0600302194390013412119C
:1010C00022FFEEC0E0EFC0E01210A5D0E0FFD0E0BC
:1010D000FE120A90900134120B5C90010E120FE682
:1010E000241EFFE435F0FE900134121006FBD312EB
:1010F0000B38403F900212E07002A3E0703590017F
:101100009EE0702F200B2C90013BE004F0700690C5
:10111000013AE004F0D390013BE0940590013AE0FD
:101120009400401E120FF1121058E490013AF0A3FF
:10113000F0800F120FF1121058E490013AF0A3F072
:10114000C20B900134120B6800000000E4900138DB
:10115000F0A3F090019EE090021660041211962216
:1011600012108E22C0E0C083C082C0D0D2AF9002E5
:1011700025E004F0D3900213E09400900212E09472
:1011800000400CA3E024FFF0900212E034FFF0D303
:10119000900215E09400900214E09400400CA3E04B
:1011A00024FFF0900214E034FFF0D3900217E09493
:1011B00000900216E09400400CA3E024FFF090029F
:1011C00016E034FFF0D3900219E09400900218E08A
:1011D0009400400CA3E024FFF0900218E034FFF0EC
:1011E000D390021BE0940090021AE09400400CA3FC
:1011F000E024FFF090021AE034FFF0D3900223E0E5
:101200009400900222E09400400CA3E024FFF090B0
:101210000222E034FFF0D3900221E09400900220FB
:10122000E09400400CA3E024FFF0900220E034FFA3
:10123000F0D390021DE0940090021CE09400400C5A
:10124000A3E024FFF090021CE034FFF0C3E56F94AC
:10125000E8E56E94035008056FE56F7002056EC3F4
:10126000E55B94E8E55A94035008055BE55B700282
:10127000055AD3900193E09400900192E0940040CD
:101280000CA3E024FFF0900192E034FFF0D3900132
:1012900097E09400900196E09400400CA3E024FFB6
:1012A000F0900196E034FFF0D3900172E094019049
:1012B0000171E09400400CA3E024FFF0900171E084
:1012C00034FFF0D390021FE0940090021EE09400DF
:1012D000400CA3E024FFF090021EE034FFF0D0D0D9
:1012E000D082D083D0E0327E007FFF7D007B017A08
:1012F000007904120BC69002D67400F0A37404F0B7
:101300009001C57401F0A37400F0A374B8F09001CB
:10131000CB7401F0A37400F074AC1229ED7400F0EA
:10132000A37494F09001C87401F0A37400F0A37446
:10133000C6F09001D17401F0A37400F074D21229A8
:10134000ED7400F0A3741F1229EE7401F0A374026F
:10135000F0902DE0E493FF9002D6E0FCA3E0FDF5D1
:10136000828C83A3EFF0900002E0FFED24041229A9
:10137000C7900001E0FFED24051229C7900003E0AB
:10138000FFED24061229C7902DE2E493FFED24120D
:101390001229C7902DE3E493FFED24141229C7907E
:1013A00001DA7401F0A37400F0A3743CF0E4FF755B
:1013B000F002EFA42401F582E5F0342EF583E493E6
:1013C000FE74542FF582E43400F583EEF0EF25E04F
:1013D000242DF582E4342EF583E493FE1229F5EEF4
:1013E000F01229F5E0FEEF25E0242CF582E4342EFE
:1013F000F583E49324C0F582E4342EF583EEF00FF8
:10140000EFB416AB902F56E0900058F0902F56E0B6
:1014100090006EF0902F56E0900059F0902F56E01B
:1014200090006FF09000FF7401F09000FEF09000CB
:101430003A7410F090001BF0900028F0A37420F094
:101440009002127413F0A37488F02212114FF51554
:10145000F516852811852912852813852914F50A82
:1014600012107FFFD3E5149FE5139E40078E138F64
:1014700014850A16C3E5129FE5119E50078E118F41
:1014800012850A15050AE50AB414D5E4F50FF5101E
:10149000F50AE516650A602EE515650A6028E5106F
:1014A000450F7010E50A25E02428F8E6F50F08E658
:1014B000F510801212107F2510FFE50F3E1211ED7E
:1014C000F50FEF13F510050AE50AB414C590018174
:1014D000E50FF0A3E510F0E516C394115005E516ED
:1014E0001211C0E515C394115005E5151211C01273
:1014F000114FF50A12107FFFC3E5109FFFE50F9E05
:10150000FE122C78D3EF9419EE64809480400FE49F
:10151000FCFDE50E2510F50EE50D350F800F1210C0
:101520007FFFE4FCFDE50E2FF50EE50D3EF50DED1C
:10153000350CF50CEC350BF50B050AE50AC39414D4
:1015400040B2AF74AE73AD72AC7112119D401AE52A
:101550000E9574F50EE50D9573F50DE50C9572F588
:101560000CE50B9571F50B800312114FE47F607E43
:10157000EAFDFC12119D400BE4750E60750DEAF555
:101580000CF50BAE0DAF0E2290017DE0FEA3E0FF47
:10159000C39404EE9400502F900106E0FCA3E0FDFC
:1015A000EF25E0FFEE33FE74752FF58274013EF5F2
:1015B00083ECF0A3EDF090017EE004F07006900162
:1015C0007DE004F0021E28750D011210E0E50D25E6
:1015D000E02473F582E43401F583EEF0A3EFF00527
:1015E0000DE50DB404E4120FE3FF9001061210FFA5
:1015F000E5F09CFE122C78C3EF9428EE6480948072
:101600005037900132E0702390010E120FE6FFC3B5
:10161000900107E09FFF900106E095F0FE122C7804
:10162000C3121168500590010E8003900108120F3B
:10163000E6FF90017BE5F0800B900106E0FFA3E060
:1016400090017BCFF0A3EFF0E4F50CF50BF50AF574
:1016500009F50DD390017EE0950D90017DE0940099
:10166000401E1210E0E4FCFDE50C2FF50CE50B3EEE
:10167000F50BED350AF50AEC3509F509050D80D3B2
:10168000AF0CAE0BAD0AAC09EEC0E0EFC0E09001CC
:101690007D1210A6D0E0FFD0E0FE120A908F0C8ED3
:1016A0000B8D0A8C0922C0E0C083C082C0D0ECC080
:1016B000E0EDC0E0EEC0E0EFC0E0D2AFE5DB30E44B
:1016C00019D20CC208E5DB30E102802E9002D5E58C
:1016D000DFF09002D8E4F0021F84E5DB30E50FD2A2
:1016E00006300805C208021F84C20C021F84C2080B
:1016F000E5DB30E13AE5DB30E0109002D9E0FF04B1
:10170000F0122C4DE0F5DF021F849002D9E0FFB407
:101710000813208A10D28A9002D6E0FCA3E02407A6
:10172000122C53E4F0EF641A707AD207021F8490EF
:1017300002D8E0700EA3E5DFF09002D87401F0D279
:101740000880619002D9E0902A7293FFB4FF08905C
:1017500002D5E5DFF08047EF640F70299002D9E0F1
:10176000FFA3E0FCA3E0FD122C52E0540FF0900226
:10177000D9E0FF04F0ED122C52E0FFE5DF54F0FE5B
:10178000EF4EF0801F9002D9E0FF122C4DE5DFF004
:10179000EFB4240A9002147401F0A374F4F09002E0
:1017A000D9E004F075DBFFD0E0FFD0E0FED0E0FD33
:1017B000D0E0FCD0D0D082D083D0E0329002C8EF0D
:1017C000F09002CDE4F0A374FFF0E4A3F0A3F0A343
:1017D00004F0A374FFF0902EC07402F0902EC37436
:1017E00008F0E49002C9F0A3F09002C9E0FEA3E083
:1017F000FFC39409EE9400400302208BEF9407EEA0
:10180000940040067E007F0180199002C9A3E00485
:10181000FFE47E01C8EFC8088006CEA2E713CE130E
:10182000D8F8FF9002CBEEF0A3EFF0902EC0741921
:10183000F0902EC0E030E2F99002C8E0FF75F002AF
:10184000A424001229DCE0FCA3E0FD902EC0740269
:10185000F0D3ED94FFEC940F40179002CBE0FCA383
:10186000E0FD75F002EF1229D9EC8DF01209BC8071
:10187000299002C8E075F0021229D9C083C082E025
:10188000FEA3E0FF9002CBE0FCA3E0FDC3EF9DFFD1
:10189000EE9CD082D083F0A3EFF09002CAE004F077
:1018A00070069002C9E004F0021FC97F00227F99F0
:1018B0007A0179061210769001087401F0A3740081
:1018C000F074441210427400F07446121042740016
:1018D000F0A374481210437400F0A3743212104342
:1018E0007400F0A3742E1210437400F0A3742CF053
:1018F0009001237401F0A37400F0A37426F090010A
:10190000987401F0A37400F0A3748412104374005F
:10191000F0A37486F09001267401F0A37400F0A384
:10192000741C1210437400F0A37422F090011A7416
:1019300001F0A37400F0A374361210437400F0A3F6
:10194000742A1210437400F0A37438F0757900758E
:101950007AC890011A120FFEF9E579857AF0120A19
:101960003590011D120FFEF9E475F064120A3590EE
:101970000120120FFEF9E475F096020A35122B5A77
:10198000902E42E0FEA3E024C4FFEE34FEFE1211CE
:1019900067400A902E427401F0A3743CF0121023A9
:1019A00053997F122A001208661210CF902EC3148A
:1019B000F01210D9902EC0E030E2F9902EC0E4F081
:1019C000902E027D121210B78E268F277D14120BD7
:1019D00099EF24E0F574EE34B1F573ED34FFF57250
:1019E000EC34FFF5714389021210294380024399B8
:1019F0008053997F122C63902E5EE4F0A374FFF065
:101A00007F0F121F9C902E5EE0FEA3E0D394F0EEB9
:101A100094014007902E5EE4F0A3F0902EC4E4F011
:101A2000439980A3F0900105E0900021F01210B2DC
:101A3000900126120FFEF9EE8FF0020A359002C6D1
:101A4000EEF0A3EF1211379002C6E07002A3E0603F
:101A50000312215D1226F3E490017DF0A3F07F14C0
:101A6000122AA89002147402F0745812108B90017C
:101A700006E0F9A3E0FFA3120FFE12105890010B2D
:101A8000120FFE1210C1900111120FFE1211D3900D
:101A90000114120FFE1210C1900117120FFE121145
:101AA000D31211DCE4900132F0900134120B680083
:101AB000000000E4900138121130F0900106120F7E
:101AC000F6121058E4900133F09002221211E390C4
:101AD000021EF0A3F0FE7F14FD7B017A01798412CF
:101AE0000BC6900123120FE690018A121147900154
:101AF00092121196229002CCEEF0A3EFF0E564452D
:101B000063700C9002CCE0F563A3E0F5648016905E
:101B100002CDE02564FF9002CCE035631211EDF5B3
:101B200063EF13F5640565E565D3940A400D85639D
:101B300061856462E4F563F564F565D3E56294005C
:101B4000E5619400405A9002CDE09562FF9002CC8E
:101B5000E09561FE122C78C3EF940AEE64809480C5
:101B60005026AE61AF627C007D03120B999002CCCF
:101B7000121030E4FCFDEB2FFFEA3E12109D7802BC
:101B8000120B499002CC80139002CDE02562FF90A9
:101B900002CCE03561C313FEEF13FFEEF0A3EFF0CC
:101BA0009002CCE0FEA3E0FF22022B03E493A3F813
:101BB000E493A34003F68001F208DFF48029E49364
:101BC000A3F85407240CC8C333C4540F4420C8835B
:101BD0004004F456800146F6DFE4800B010204085D
:101BE00010204080902579E47E019360BCA3FF54CF
:101BF0003F30E509541FFEE493A360010ECF54C0AB
:101C000025E060A840B8E493A3FAE493A3F8E49332
:101C1000A3C8C582C8CAC583CAF0A3C8C582C8CA3A
:101C2000C583CADFE9DEE780BE30000875791B7521
:101C30007A588006757900757AC890010B120FE604
:101C4000FFAEF0C3957AEE95795015900132E060C1
:101C500020900120120FE6FDC3EF9DEE95F040119C
:101C600090021AE07002A3E0702790013204F08025
:101C70002090001BE0B420051211CB800690021AC0
:101C8000121196E4900132F0900218F0A3F01211B4
:101C9000DC900132E06011900028E090003AB4102E
:101CA000047410F0227420F02290022FE014601BC4
:101CB0001460432402705D900239E0B4010A90027E
:101CC0002F1224F5D205D200C203227F0212290A64
:101CD000EF60077F02122C84C205900239E0703455
:101CE00090022F7402F0D203C205C2007F03122CAF
:101CF000847F030227A57F0312290AEF60167F0362
:101D0000122C84900239E090022F7003F0800312AD
:101D100024F5C203227401F07F02122C847F021288
:101D200027A522CDEFCD43AD105399EF439A105321
:101D30009BEF902EC07402F0147E00C8EDC808809E
:101D400005C333CE33CED8F9FF902EC4EEF0A3EF07
:101D5000F0902EC8EEF0A3EFF07410122BB6902E78
:101D6000C0E030E2F9902EC0E4F07402F07420126A
:101D70002BB6902EC0E030E2F9902E00E0FEA3E0FA
:101D8000FF902EC4E4F0A3F0902EC0F043991053BE
:101D90009AEF539BEF5390EF22C10C410233004165
:101DA0000234004102300041023800C102C101C1C9
:101DB000044102390041022F00C103C100C10541A5
:101DC00002D8004102D9004202D30000C106C10876
:101DD000C1074102D5104101030041010510C10BAB
:101DE000C10A41019F0002260000047100000000AA
:101DF0004101041041023A00009002C47408F0A3AB
:101E0000E4F0A3743FF0A374DFF0E4FDFCF9758AFD
:101E100010538AEF009002C4E0FEA3E02DF582EE9D
:101E20003CF583E493FF69F90DBD00010CBC37E577
:101E3000BDDFE29002C6122C5AE493699002D6707C
:101E400009122C5AA37412F08006122C5AA3E4F043
:101E5000758A50538AEF0022200A062003033005BA
:101E600009E4FFFE12221DC20A22900220E0700245
:101E7000A3E06005121160703A200003122A3912A3
:101E800026F37F01122AA8121D689002C4EEF0A367
:101E9000EFF07B017A0279C412283E9002C412113D
:101EA0000E120FFE12105812121A122409121416D2
:101EB0001217BB12298C22900211E024FE60131429
:101EC0006023146027240370499002117402F012F9
:101ED0002C937F017E0012221D9002117403F0E406
:101EE000900230F0229002117404F0221224891220
:101EF00027F6122489900171E07004A3E064017058
:101F00000C900171F0A3F09002117402F0E49002C1
:101F100025F0224389025395FD5396FD438002121A
:101F20002BF07F0C122503CAEECACBEFCB7F0C122D
:101F30002503EF2BFFEE3A9002C9F0A3EFF0122B2E
:101F4000C2F91209D245F07006122BA7EE801812C2
:101F500009D2FBAAF0122BA7EF2BFFEE3AC313F91D
:101F6000EF13FF122BC2C98FF0120A35221229E596
:101F7000F5828E83A3E0B4AA031225D91229E5FFC6
:101F80001229D0E0B41008EF1229D0E4F0D20A12DE
:101F900029E5FF241B1229D2E0700DEF241C122921
:101FA000D2E0B410031228851229E524131229D295
:101FB000E0FFB410069002397401F0EFB42005E49C
:101FC000900239F0229002C4EFF0E024BB122BD033
:101FD000E060037F01229002C4E0FF24BB122BD0FB
:101FE0007401F0EF122BD8E493FE740193FFE4FC2C
:101FF000FD902F60E0F8A3E0F9A3E0FAA3E02FFF43
:10200000EA3EFEED39EC389002C4E0122BE4EEF02B
:10201000A3EFF07F0022121160702990019FE07001
:102020000312111790019F7401F0900029E0B42071
:1020300008122638120C478003122AD69002247404
:1020400001F08017E490019FF0900029E0B4200394
:10205000122638900224E06002E4F0022C13900271
:10206000C6EBF0A3EAF0A3E9F0900214E07002A33B
:10207000E07031900133E0602BE4900133F01226E0
:10208000F31211177508017F01122AA8121D68901A
:1020900002C6120FFE1210C80508E508C3941440CA
:1020A000E61211CB2212082EE4F5F275F30875EE54
:1020B000FF75EF3F75EA81F5F675EB0700E5EC304B
:1020C000E7FBE4F5EC9002D6E0FEA3E0FF241BF56D
:1020D00082E43EF583E5F3F0EF241CF582E43EF55F
:1020E00083E5F2F075EB3022758B11902F6474400C
:1020F000F0E4FEE4FFEF75F003A4244DF582E43430
:1021000002F583E5822EF582E43583F583E4F00F52
:10211000EFB40AE10EEEB403DA7F099002BBE4F0FB
:10212000A3DFFC902F647480F022CBEFCB122BCD79
:10213000E06036902F60A3A3E0FEA3E0FFEB122B3C
:10214000E4E0FCA3E0FDD39FEC9E501DC3EF9DFF98
:10215000EE9CFEEB122BD8C37401939FE4939E4038
:1021600008122BCDE4F07F01227F0022758A5053A4
:102170008AEF9000027411F09000017422F0900038
:10218000037433F0E4F5AB75AC1DF5ADF5AF7589AF
:10219000FF75913F7599FFF59675931CF59BF59525
:1021A000F592F59A5388FCD28AD20D2290003AE03B
:1021B000FC900104E06C602E90003AE0FE90010477
:1021C000F090000BE0900238F0540FF0EEB42005D0
:1021D000E04420800AECB4100B900238E04410F088
:1021E00090000BF0C28A22F582E43CF583EFF022E6
:1021F000241AF582E43EF58322A42440F582E5F01A
:10220000342EF583229002D6E0FEA3E022A3F0A3B1
:102210007401F0A322746A2FF582E43400F583225E
:102220001210CF902EC4E4F0A3F0FF74542FF58267
:10223000E43400F583E0FE75F002EFA42400F5829B
:10224000E5F0342EF583E49324C0F582E4342EF5D2
:1022500083EEF00FEFB416D322300735C207902E6D
:1022600042E0FFA3E09002C6CFF0A3EFF0122B5A9A
:102270001210B2900126120FFE1210C81210CF9049
:1022800002C6E0FFA3E0902E42CFF0A3EFF01211C0
:10229000172200000000FFFFFFFF0000FFFFFFFF0D
:1022A000FFFFFFFFFF00FF000000FFFF000000FF37
:1022B000FFFFFFFFFFFF00000000FFFFFFFFFFFF2A
:1022C000FFFFFFFF000000009002C9EFF0122A009C
:1022D000E4F5099002C9E0FFE509C39F5007121514
:1022E000ED050980EE902EC0E4F0121C2B90010643
:1022F000EEF0A3EFF022E4F5B2F5BA758D20438D30
:1023000020538D7F53AAF7F58BE5DB20E211200CDB
:102310000EE4F58A758703000000758A50D20A75AD
:102320008B112212084E53A87F12294C12081E123C
:102330002B2F43A880122C8D9000FFE060069002A6
:10234000117401F0122C3112274D12269780F5904E
:1023500002D6E0FFA3E09002DACFF0A3EFF0E4F5BD
:10236000DA75DA4043DA2075D74075DA5875D90145
:1023700043A90875B80875F8082212102353997FED
:10238000122A00902E42E4F0A374FFF01208667F38
:1023900001121F9C43890212102943800243998035
:1023A0002201F40028002801F4009603E801F40358
:1023B000E81770006403E8003202580258012C014B
:1023C000F403E8271000C89002C9E0FEA3E0FF7CF8
:1023D000007D14020974902EC2F0902EC0E04419C2
:1023E000F022900123E0FBA3E0FAA3E02274BB2BD0
:1023F000F582E43402F5832225E02495F582E43465
:102400002BF5832225E0243BF582E43402F5832278
:10241000902EC07402F0902EC77474F0902ECD747C
:10242000C0F0A374FFF0A3F0902EC37401F0902EBF
:10243000CAF022E5B230E005E5AA20E013E49002FC
:1024400026F075B28E75B6F9F5B743B20143AA010D
:1024500022E4FF3006169002D6E0FCA3E0F5828C61
:1024600083E0FE54F0FFEE540FF0C20622A3E0FC1E
:10247000A3E02FF582E43CF58322E0FEA3E0F582A1
:102480008E83221210CF902EC27412F07409121192
:10249000807480F0A3E4F022EE30E707C3E49FFFEE
:1024A000E49EFE2274BB2F122BD0E4F022122C9D4E
:1024B0000228C81211DC22D2AF32D2AF32022C1362
:1024C000000000000000000000000000000000000C
:1024D00000000000000000000000000000000000FC
:1024E00000000000000000000000000000000000EC
:1024F00000000000000000000000000000000000DC
:1025000000000000000000000000000000000000CB
:1025100000000000000000000000000000000000BB
:1025200000000000000000000000000000000000AB
:10253000000000000000000000000000000000009B
:10254000000000000000000000000000000000008B
:10255000000000000000000000000000000000007B
:10256000000000000000000000000000000000006B
:10257000000000000000000000000000000000005B
:10258000000000000000000000000000000000004B
:10259000000000000000000000000000000000003B
:1025A000000000000000000000000000000000002B
:1025B000000000000000000000000000000000001B
:1025C000000000000000000000000000000000000B
:1025D00000000000000000000000000000000000FB
:1025E00000000000000000000000000000000000EB
:1025F00000000000000000000000000000000000DB
:102600001203AB68000000000000000000000000A2
:1026100000000000000000000000000000000000BA
:10262000021203030A0F0DA00EB60FFF0C020BFFE0
:1026300023F724062504070127082A0828022B026D
:1026400029032C032D082E082F0426080211030647
:102650000A100D400E800FFF0C020BFF23F4240420
:102660002504070127102A1028042B0429032C0312
:102670002D202E202F10262000000000000000003A
:10268000000000000000000000000000000000004A
:10269000000000000000000000000000000000003A
:1026A000000000000000000000000000000000002A
:1026B000000000000000000000000000000000001A
:1037F000000000000000000000000000000000CEFB
:1038000000000000000000000000000000000000B8
:1038100000000000000000000000000000000000A8
:00000001FF
