:10000000011007002800000000400000FF00000071
:10001000021CB7E4900216F0A3F0220237AA7E0574
:10002000900182E06F6007EFF0E49001B3F090017F
:1000300082E070027E029001B3E004F0C39E5003A0
:100040007F00229001B3EEF07F0122022B4D53BAC4
:10005000FEE5B920E004E51D6005E5B930E1FBE40B
:10006000F5BF53B9FD53B9FEF51D22022477BB013C
:100070000689828A83E0225002E722BBFE02E32245
:1000800089828A83E49322BB010989828A83F8E00A
:1000900028F022500327F722BBFE05F8E328F322BD
:1000A0008A838982F8E4932822BB010689828A83A5
:1000B000F0225002F722BBFE01F322EF8DF0A4A83C
:1000C000F0CF8CF0A428CE8DF0A42EFE22C5F0F83F
:1000D000A3E028F0C5F0F8E582158270021583E0F0
:1000E00038F022BB0110E58229F582E5833AF583D9
:1000F000E0F5F0A3E0225009E92582F886F008E651
:1001000022BBFE0AE92582F8E2F5F008E222E58347
:100110002AF583E993F5F0A3E99322F8BB0111E5F1
:100120008229F582E5833AF583E8F0E5F0A3F02231
:100130005009E92582C8F608A6F022BBFE09E92588
:1001400082C8F2E5F008F222EF2BFFEE3AFEED391D
:10015000FDEC38FC22C3EF9BFFEE9AFEED99FDEC1F
:1001600098FC22E88FF0A4CC8BF0A42CFCE98EF054
:10017000A42CFC8AF0EDA42CFCEA8EF0A4CDA8F00F
:100180008BF0A42DCC3825F0FDE98FF0A42CCD35D3
:10019000F0FCEB8EF0A4FEA9F0EB8FF0A4CFC5F03D
:1001A0002ECD39FEE43CFCEAA42DCE35F0FDE43C36
:1001B000FC2275F008758200EF2FFFEE33FECD3381
:1001C000CDCC33CCC58233C5829BED9AEC99E582C8
:1001D00098400CF582EE9BFEED9AFDEC99FC0FD554
:1001E000F0D6E4CEFBE4CDFAE4CCF9A88222B80044
:1001F000C1B90059BA002DEC8BF084CFCECDFCE50F
:10020000F0CBF97818EF2FFFEE33FEED33FDEC3332
:10021000FCEB33FB10D703994004EB99FB0FD8E5B7
:10022000E4F9FA227818EF2FFFEE33FEED33FDEC00
:1002300033FCC933C910D7059BE99A4007EC9BFCF6
:10024000E99AF90FD8E0E4C9FAE4CCFB2275F01082
:10025000EF2FFFEE33FEED33FDCC33CCC833C810A7
:10026000D7079BEC9AE899400AED9BFDEC9AFCE8D5
:1002700099F80FD5F0DAE4CDFBE4CCFAE4C8F92222
:10028000EB9FF5F0EA9E42F0E99D42F0EC6480C8F5
:1002900064809845F022EB9FF5F0EA9E42F0E99DDC
:1002A00042F0E89C45F022E8600FECC313FCED132C
:1002B000FDEE13FEEF13FFD8F122E86010ECA2E789
:1002C00013FCED13FDEE13FEEF13FFD8F022E860F0
:1002D0000FEFC333FFEE33FEED33FDEC33FCD8F10B
:1002E00022BB010DE58229F582E5833AF5830203FD
:1002F0003F5007E92582F80204B4BBFE07E92582D6
:10030000F802034BE58229F582E5833AF58302047E
:10031000C0BB010789828A830203C55005E9F80240
:1003200004EDBBFE05E9F80203D122BB010DE58215
:1003300029F582E5833AF5830203C55007E9258252
:10034000F80204EDBBFE07E92582F80203D122E0A2
:10035000FCA3E0FDA3E0FEA3E0FF22E2FC08E2FD37
:1003600008E2FE08E2FF22E0F8A3E0F9A3E0FAA326
:10037000E0FB22E2FB08E2F908E2FA08E2CBF8220D
:10038000BB010789828A830203575005E9F80204FA
:10039000D0BBFE05E9F802036389828A830204DD8B
:1003A0007401FF3395E0FEFDFCA3A3A3E0CF2FF083
:1003B000E582158270021583E0CE3EF0E58215825B
:1003C00070021583E0CD3DF0E58215827002158341
:1003D000E0CC3CF022ECF0A3EDF0A3EEF0A3EFF0C4
:1003E00022ECF208EDF208EEF208EFF222A8828584
:1003F00083F0D083D0821203F41203F41203F412B8
:1004000003F4E473E493A3C583C5F0C583C8C58230
:10041000C8F0A3C583C5F0C583C8C582C822D083F0
:10042000D082E493F208740193F208740293F20804
:10043000740393F2740473A42582F582E5F0358386
:10044000F58322FAE6FB0808E6F925F0F618E6CA75
:100450003AF622E0FBA3E0FAA3E0F922EBF0A3EAEC
:10046000F0A3E9F022E493FB740193FA740293F988
:1004700022D083D082F8E4937012740193700DA39C
:10048000A393F8740193F5828883E47374029368EC
:1004900060EFA3A3A380DFEC8EF0A4CCC5F0CCCD9D
:1004A000F8EFA4CEC5F02DFDE43CFCE8A42EC8C5B1
:1004B000F03DFDE43CFCEFA4FFE5F028FEE43DFD4B
:1004C000E43CFC22E6FC08E6FD08E6FE08E6FF2226
:1004D000E493FC740193FD740293FE740393FF2272
:1004E000E6FB08E6F908E6FA08E6CBF822E493F81A
:1004F000740193F9740293FA740393FB22ECF608E7
:10050000EDF608EEF608EFF622E49001E2F0D39063
:10051000019AE09400900199E0940040337824120D
:10052000034B9000911203C5900091120E6624E9CE
:10053000F582E43439120F00FFEE3395E0FDFC1232
:100540000153780A1202AA120E71120F091203C582
:10055000120E71120F0912033F900091120F4CC03E
:1005600004C005C006C007120E71120F0912033F26
:1005700078241203631201389001F51203C590012B
:10058000F91203DD00010000D007D006D005D00429
:10059000122E7F9001E2120EA52495F582E434001C
:1005A000121009242EF812034BC004C005C006C067
:1005B000079001F51203DD00010000120E7125E025
:1005C0002495F582E43400F58312033F9001F9127B
:1005D00003C5D007D006D005D004122E7F9001E2CB
:1005E000120EA51210461203C5201A0AEB25E025AB
:1005F000E0121046803C74EB120F7FC3940474EB3E
:100600005007120F7F24048005120F7F24FC9001F5
:10061000E3F0EBC43354E024ECF582E43400F583DA
:10062000C083C0829001E3E0D082D08375F00412D1
:10063000042712033F9001E51203C5120F15C002F3
:10064000C001E024EBF9E43400120F607408F0906C
:1006500001E512033F120FD8D001D0021238451223
:100660000F157D08122554AF41AE40AD3FAC3E9012
:1006700001E2120EA5240CF582E4340112100924C3
:10068000AAF582E43400F583120E6625E0240CF509
:1006900082E43401F583120F5A9001E91203C590E8
:1006A00001E912033FEC3350037F02229001E9126B
:1006B0000FFFD3120270400A9001E91203DD00001F
:1006C000FFFF9001E912033F120F892410F582E425
:1006D0003401120E819001EDEEF0A3EFF0ED120F58
:1006E000A5C002C0019001E2E0241CF9E43401122B
:1006F00010147405F09001ED120FDED001D002123B
:100700003887A215301401B3501F9001E2E0120F98
:10071000A57D0512293D120E71241DF582E43401D8
:10072000F583E544F0A3E545F09001E2E075F004BF
:10073000A42423F97401120F28E4FCFD9001F8743D
:100740000212096D2421F582E43401120E81900118
:10075000EDEEF0A3EFF0900199E07002A3E06003EA
:1007600002080F300003020807ED120EDC121050D1
:10077000123D489001EFEEF0A3EFF09001E2E0FFB0
:1007800012105AE09001E4F0D394004011EF25E0FC
:10079000120EF9120EEC4006E49001E4804C900138
:1007A000E4E0D394054021120E7124C9F582E434AB
:1007B00039F583E493C313FE74019313120EEC40D6
:1007C000079001E4740580229001E4E0D39408408E
:1007D0002E120E71120EF97802CEC313CE13D8F971
:1007E000120EEC401A9001E47408F07F0E123ABB2E
:1007F000120E7124B9F582E43401120E81802612A2
:100800000E7124B9F582E43401120EE54E70169093
:1008100001E4740AF0800E9001E47403F080069005
:1008200001E47405F09001E4E0FF9001E2E0FE12C3
:10083000105AEFF0EE120EDCFF120F892477F582CA
:10084000E43401120E81ED75F004A42429F9740139
:10085000120F28E4FCFD9001E4E09001F812096D0C
:100860002427F582E43401120E81ED25E0247DF584
:1008700082E43401120EE5FFED25E02427F582E441
:100880003401F583E0FCA3E0C39FFFEC9EFE9001E2
:10089000EDF0A3EFF0120F892430F582E43401F576
:1008A00083E0FAA3E0C39FEA9E502B120F2D900124
:1008B000E2E0FC120E78EF24E7FFEE34FFFEEC12CC
:1008C0000F91120E819001EEE024F4FF9001EDE013
:1008D00034FFFEEC803AED120F91120EE51210502B
:1008E000D3EF9DEE9C402FED2419FFE43CFE9001D8
:1008F000E2E0FB120E78EB120F91F583ECF0A3ED22
:10090000F09001EEE0240CFF9001EDE03400FEEBEE
:10091000120F9B120E81120F36C002C001E0FF249D
:1009200074F9E434011210147420F0EF120F9BF5E7
:1009300083120FDED001D002123887120F367D20CD
:1009400012293D120F892475F582E43401F583E5FF
:1009500038F0A3E539F0ED120F9BF583E0F8A3E042
:10096000FFED25E02432C8F208EFF29001E2E00446
:10097000F0E0C3940150030204FE7F0522F012331D
:10098000B79001E2E0FD25E022E49001EFF0EF7086
:1009900003020ABC12003EE49001ECF09001ECE08E
:1009A000FFC394015010EF1212DD1203DD000000AE
:1009B0000012135680E69001EFE05403FF9001ED22
:1009C000F012397D123B1BE49001ECF09001ECE059
:1009D000FFC394014003020A6712131D1232E39011
:1009E00001F01203C5E49001EEF012139475F0309B
:1009F000A424B6F582E43400F583C083C08290015C
:100A0000EDE0D082D08375F00C120427C083C08241
:100A10009001EEE0D082D0831213F61213FFE0B4FF
:100A200003C89001ECE0245E9001F01212A4900142
:100A3000F01203C5121394C43354E024ECF582E49D
:100A40003400F583C083C0829001EFE0D082D08370
:100A50001213F69001ECE01212DDC083C082120383
:100A60003F9001F0120357120138D082D083120355
:100A7000C51213560209BC9001EF1213E85003028D
:100A800009A6E49001ECF0E49001EEF09001EEE0B4
:100A9000FFC39405501A9001ECE075F00AA42412EB
:100AA000F582E434011214061212721213FF80DC74
:100AB0009001ECE025E0241DF582E434011212706F
:100AC000121356E0B401C0E490022DF0E49001EC62
:100AD000F09001ECE0FB1212DD12033F1212EBEB7F
:100AE00025E025E024AAF582E43400F5831203C54D
:100AF0009001ECE0FB25E025E024AEF582E4340033
:100B0000F5831203DD00000000EB25E024B4F5823C
:100B1000E4340012140F121381243412135DEF25F4
:100B2000E0243212135DEF25E02436F8E4F208F2F7
:100B3000EF25E02410F582E43401121270EF25E075
:100B4000241FF582E4340112140FEF25E02421F56F
:100B500082E43401121270EF25E025E02423F582AF
:100B6000E43401F5831203DD001D4C0012138124CF
:100B700027F582E43401121270EF25E025E02429E4
:100B8000F582E43401F5831203DD001D4C00900171
:100B9000ECE0FF242DF582E43401F583740AF0EFD4
:100BA00025E0242EF582E43401121270EF25E024B2
:100BB00030F582E43401121270EF25E02432F58220
:100BC000E43401121270EF25E02475F582E434015B
:100BD000121270E49001EEF09001EEE0FFC3942059
:100BE000501A9001ECE075F040A42434F582E4340E
:100BF000011214061212721213FF80DC12138124E8
:100C000077F582E43401121270EF25E0247DF5823D
:100C1000E4340112140F121356E064016003020A57
:100C2000C12274B42FF582E43401F583E4F0EF259A
:100C3000E0249DF582E43401F583E4F0A3F0EF2590
:100C4000E0249FF582E43401F583E4F0A3F0EF257E
:100C5000E024A1F582E43401F583E4F0A3F02290CE
:100C600001E4E0FF25E0241FF582E43401F583E090
:100C7000FCA3E0FDEF25E02410F582E43401F583C8
:100C8000E0FEA3E0229001E2E0FD25E024AFF58242
:100C9000E43401F583EEF0A3EFF0ED25E02436F81F
:100CA000E2FE08E2FFED25E0247FF582E43401F561
:100CB00083EEF0A3EFF0229001E4E0FF25E024B4FE
:100CC000F582E43400F583E475F0011200BDEF25F0
:100CD000E024B4F582E4340022D39001C0E0940013
:100CE0009001BFE09400229001E2E0FF25E024ADF6
:100CF000F582E43401F583E0FCA3E0D39400EC94A6
:100D00000022D390019AE09400900199E09400228F
:100D10009001E2E0FF25E024C9F582E43439F5834F
:100D2000229001E3E0FF9001E2E0FE7401A80608D2
:100D3000229001E4E0FF25E0241FF582E434012243
:100D40009001E2E025E024ABF582E434012290003A
:100D50009D7828E2FE08E2FFE0FCA3E0FD2290017E
:100D6000E1E025E0249DF582E4340122EF25E02531
:100D7000E024AEF582E43400F58322F583E0F8A3A5
:100D8000E0FDEF25E02434C8F208EDF222E0FF2474
:100D9000B8F582E43401F5832225E02477F582E476
:100DA0003401F583E0FCA3E022E025E02435F8C31C
:100DB000E29FFF18E29EFEA3F0A3EFF02274B42995
:100DC000F582E43401F58322F583E475F001120025
:100DD000BDFCD3E5F09FEC9E2225E024A9F582E43A
:100DE000340122F58374FFF5F00200BD25E024AF45
:100DF000F582E43401229001E2E025E022FF900137
:100E0000E2E0FCA3E0FDC3EF9DEE9C2225E024ADD3
:100E1000F582E434012225E0247BF582E4340122CA
:100E200090018EE0940090018DE0940022EF25E087
:100E30002439F9C3E3227828E2FF08E2CFF0A3EFD8
:100E4000F022EF25E024B9F582E434012225E024E4
:100E500032F8E2FE08E2FF2225E02434F8E2FC0842
:100E6000E22225E02427F582E434012225E02479DA
:100E7000F582E434012212033FAB07AA06A905A8B4
:100E8000049001E2E025E02225E02430F582E434FC
:100E900001F583EEF0A3EFF022E47FE87E03FDFC92
:100EA000120357020153F812036312015378071219
:100EB00002979001E1E0FB25E025E02275F030A4E7
:100EC00024B6F9740035F0FA7B01A3E075F00CA4A8
:100ED00029F9EA35F0FA229001FD1203C59001F5D7
:100EE0001203579001FD12033F0201DE25E0242783
:100EF000F582E43401F583E0FEA3E022FFD3900104
:100F0000F0E09F9001EFE09E2224C9F582E434399D
:100F1000F583E493FE7401932225E02499F582E49D
:100F20003400F583229001E2E075F020A424ECF96E
:100F3000740035F0FA7B012235F0FA7B019001ED67
:100F4000E0FEA3E0FF229001E2E075F040A424342B
:100F5000F9740135F0FA7B01229001E71203570280
:100F60000138A804A905AA06AB0712033F020145F0
:100F7000FA9001F412044C9001F72225E02414F8B1
:100F8000E2FC08E2FD229001F412044302005E2B11
:100F9000F582E43400F583E0229001E2E0FD25E0F3
:100FA0002225E02432F582E434012225E0242EF5C6
:100FB00082E434012275F00AA42412F9740135F098
:100FC000FA7B012225E02418F8E2FE08E2FF22F86D
:100FD000E6FFE4FCFDFEEB25E025E022E025E02530
:100FE000E02408F82212034B9001F80203C5E0FF49
:100FF000A3E09001F8CFF0A3EFF0221202978F2721
:101000008E268D258C242212034BEC4D4E4F22E46C
:101010007FFF7EFFFDFC020357F5831203C5EB251E
:10102000E025E022FA9001F412044C9001F722121C
:1010300003C59001F902033FF81203D1EB25E02527
:10104000E0229001E1E004F022F9F8C3020286F800
:10105000EEF208EFF22224E7F582E43400F5832271
:10106000FF9001EDE0FCA3E0FD22242DF582E434A5
:1010700001F583229001E2EEF0A3EFF0E4A3F090FB
:1010800001E4E0FFC394014003021231E4A3F0EF56
:10109000120D52120C6ED39400EE94004009900091
:1010A0009D120E2602114E30006A120C4FFFD39D86
:1010B000EE9C400A9001E4E0120D26120C9F120CE7
:1010C000F25005120CCA4003021122120CA7120C96
:1010D0006E120DED5035A3E0120D7FE06401602B20
:1010E000120D3E12123240189001E2E013FEA3E00E
:1010F00013FFA3E0120CBF120D92D39FEC9E500B76
:10110000A215301401B340030211E6120D21120D95
:101110006B02114E120CF25005120CCA401D120C3B
:101120004FFFD39DEE9C400A9001E4E0120D261281
:101130000C9F120D21120D6B0211E69001E4120DAD
:101140007DE0B4011F9001E4E0FE25E02475F58206
:10115000E43401F583E0F8A3E0FDEE120D73900195
:10116000E50211E3120D5CC083C082120357C00078
:101170009001E4E0120E3DE4FCFDD000120138D0F5
:1011800082D0831203C5120CA7120C6E120DED5003
:1011900035120D3E121232502DA215301401B340FB
:1011A000259001E4E0FF25E024A1F582E43401125A
:1011B0000D92FDEF25E0249FF582E43401120C6EC0
:1011C000D39DEE9C40309001E4E0120CBF120C6EF7
:1011D000FFFBAA06E4F9F89001E4E0120D5D1203AA
:1011E0003F1201DE9001E4E025E02434F8EEF2083D
:1011F000EFF2A37401F09001E5E0603C9001E4E0BF
:10120000FF120CBF120C48120D5C1203DD0000002F
:1012100000120D21120C487828E2FD08E290009D92
:10122000CDF0A3EDF074B82F120D81E4F09001E43D
:10123000E0FF120D34120C289001E4E004F00210DB
:101240006F22123D48D3EF941EEE940022120153F8
:101250009001E31203C59001BB1203579001E31202
:10126000033F1201DE78081202979001E31203C5D2
:101270007F0FE4FEFDFC9001E3120357D3020286C8
:10128000F5837475F0A37430F02212035790006751
:10129000E0FF0232E790006BE09039B8932253BA36
:1012A0000F43BA4075BBFF75A9C075AC0175AD4061
:1012B00075AE4022F8E6FFE4FCFDFE120357120172
:1012C0005378070202979001E312033FC3EF940F94
:1012D000FFEE9400FEED9400FDEC9400FC9001E321
:1012E0000203C5E5BAF053BA0F43BA102225E02530
:1012F000E0240CF582E43401F58322EF24D0FFEEE4
:10130000348AFEED34FFFDEC34FFFC22EF25E025AE
:10131000E02400F82225E025E02408F802034B90A1
:1013200001E302033F25E025E0244BF822746B2FF4
:10133000F582E4340022A804A905AA06AB0722E43A
:101340007B32FAF9F8C3020286FFF5AD8FAE53AADD
:10135000CF221203D19001E2E004F0221203D190D7
:1013600001E3E004F0229001ECE004F022F874754F
:10137000F2087430F222E0F5B3A3E0F5B2A3E0F591
:10138000B12274017E00A8030822120357C302028F
:10139000869001ECE0FF25E022900067E09039B8EC
:1013A00093F5AB229001F012033F9001ECE0229004
:1013B00001E2E0C454F02493F8221203D190021504
:1013C000E004F02275AC0375ADC075AEC022E4F543
:1013D000AB023B1B9001E402033F9001E712033F85
:1013E0009001E3229001E612033F9001E222900176
:1013F000E712033F9001E322E004F0C39408229037
:1014000001E3E025E02275F0041204270203C590F1
:1014100001EEE004F022F58375F002EF020427F5F7
:1014200083E4F0A3F022E49001E2F0A3F0900187BE
:10143000E0700302155C9001E2E0FF120DC9120C8E
:10144000E54012EF120DC9120DD37F0F123ABB12F5
:101450000C7502158C9001E2E0FF120DDC120CE518
:101460004009EF120DDC120DD380087F0F123ABB3A
:10147000120C759001E2E0FD25E0247FF582E43452
:1014800001F583E0C313FEA3E013FFED25E024374D
:10149000F9C3E39F19E39E50157F10123ABB7C00FD
:1014A0007D0A1200AB120DE6120DFE120C9F120CFB
:1014B000D74007EF120DFC120DD3120CD7502DEFB1
:1014C00025E024B1F582E43401120C6E4E601D90CB
:1014D00001E2E0FD120E52120C6EFFED120D89FDBD
:1014E000123D48D3EF9432EE94004003021554901D
:1014F00001E2E0FF120D89FDEF120E52120C6EC3D5
:101500009DFFEE9CFE9001E2E0FD120E06F583EEDB
:101510008FF01200BDED120E5CF583E475F0011240
:1015200000BD9000A3120D41123D48D3EF9419EE77
:1015300094004068120DE6120E08120C6EFFEE3396
:1015400095E0FDFCE47B0FFAF9F8120153780412E0
:1015500002AA120DE6247DF582E43401F583EE8FB4
:10156000F01200BD9001E37401F080309001E3744B
:1015700001F0120DE6247FF582E43401120C48FFDD
:10158000123ABB9001E2E0FD120DC9120C9FED1260
:101590000DFC120C48ED120DDC120C489001E3E03A
:1015A000602A9001E2E0FF120E5C120C48EF120E6E
:1015B00006120C489000A3120E267F11123ABB129D
:1015C0000DE624B1F582E43401120C9F2230014271
:1015D000E49001E1F09001E1E0FB245B120FBF24F5
:1015E00000120E962408121028243FF812034BEB29
:1015F000120FCD120363C3120286400B9001E11259
:101600000FCC120FF770037F0222121032E0640237
:1016100070C39001E31203DD000000007B017A003B
:101620007990120F617403F07820120FD57A007947
:10163000841238457B017A0079841217217B32FAB3
:10164000121039500A9001E31203DD0000000190EE
:10165000022DE09001E2F09001E71203DD000000AE
:1016600000E49001E1F09001E1E0FFC39401504EED
:10167000EF120EACC002C0019001E1E0FF24E6F9D8
:10168000E43400120F607403F0EF25E025E0242A13
:10169000F8120FD5D001D0021238459001E1E012C6
:1016A0000EAC1217217BF47A01121039500A900106
:1016B000E71203DD0000000112103202165630005E
:1016C0001C9001E312033FEC4D4E4F700C9001E76C
:1016D00012033FEC4D4E4F6004D21A8051C21A786B
:1016E0005DE6FFE4FCFDFE782012036312015378EF
:1016F0000712029778241203D17824120FF770038F
:101700007F0222E49001E1F09001E1E0FB245E120F
:101710000FBF242A120E96242E121028242EF812FF
:101720000FF770037F0222121032E0B401DA7F0457
:10173000227D03122554C3E539953DFFE538953CDC
:10174000FEE537953BFDE536953AFCE422E4900151
:10175000E1F09001E1E0FE75F008A4246BFBEE25BA
:10176000E025E02408F812034B78041236D0AF03CA
:101770001218B1FE75F008A42467FFEE25E0241CC2
:1017800012188D04F0E0C3940240C77F7BC0077835
:101790002412034B1236CED007123DD47F77C007F8
:1017A000782412034BAD07AC06D007123DD47F83DB
:1017B000C00790010C12033F1236CED007123DD461
:1017C0007F7FC00790010C12033FAD07AC06D00726
:1017D000123DD4E49001E1F09001E1E0FEC454F048
:1017E00024851236B61237031218A8FEC454F0240A
:1017F000871236B61236E01218B1C454F02489FFAD
:101800007D647C00123DD49001E1E030181CC4548A
:10181000F0248F12189BC454F0249112189BC454C6
:10182000F0248DFF7D397C308035FEC454F0248F48
:10183000FFEE25E0243212188DFEC454F02491FFEF
:10184000EE25E02434F8E2FC08E21218A8FEC454A5
:10185000F0248DFFEE25E02436F8E2FC08E2FD12CC
:101860003DD49001E1E004F0E0C39401500302177D
:10187000C87F9FC00790009112033FAD07AC06D010
:1018800007123DD47FA1785DE6FD7C00123DD47F38
:101890009D785FE6FD7C00123DD40231E6F8E2FC63
:1018A00008E2FD123DD49001E1E022FF7D397C3059
:1018B000123DD49001E1E022FD123DD49001E1E01F
:1018C00022123DD49001E1E02290018FE475F001F5
:1018D0001200BDD3900198E09400900197E094002D
:1018E000400312334BD390019AE09400900199E0A9
:1018F0009400400312334BD39001C0E09400900158
:10190000BFE09400400312334BD390019CE094005D
:1019100090019BE09400400312334BD39001A8E068
:1019200094009001A7E09400400F12334B9001A760
:10193000E07002A3E07002D210D39001A6E0940000
:101940009001A5E09400400312334BD390018EE048
:10195000940090018DE09400400312334BE4900119
:10196000E1F09001E1E0FFC394014003021A177413
:10197000017E00A807088005C333CE33CED8F9FF17
:10198000900186E0FDEF5D601C123352F583E4F0B8
:10199000A3F012338AF0A3F0EF123380F583E4F062
:1019A000A3F00219E69001E1E0123357F583E0FE5F
:1019B000A3E0D39400EE9400402612335212334930
:1019C000EF123357F583E0FEA3E04E70137F0D1244
:1019D0003ABB9001E1E0123380F583EEF0A3EFF023
:1019E0009001E1E0FF123380123361400912338A23
:1019F00075F0011200BD9001E1E0FF1233A3123334
:101A0000614007EF1233A31233499001E1E0FF1266
:101A100033AD1233614007EF1233AD1233499001F9
:101A2000E1E004F002195222E49001E4F0EF7003C7
:101A3000021ABC12003EE49001E3F09001E3E0FFE3
:101A4000C394025010EF12131512040E0000000090
:101A500012134F80E6123B1BE49001E3F09001E388
:101A6000E0FF121315C0001232D8120138D0001254
:101A7000134CE0C3940240E59001E41213E840D512
:101A8000E49001E3F09001E4E0FFE4FCFDFEC0041B
:101A9000C005C006C0079001E3E012131512034B06
:101AA000D003D002D001D0001201DE9001E5120374
:101AB000C59001E3E0245B9001E51212A41213EF3C
:101AC00025E02408F812134CE0B402B9E49001E3D5
:101AD000F09001E3E0FFC394024003021B68EF12A1
:101AE0001305E47B107A271213339001E3E0FB50D7
:101AF00027121305EF24F0FFEE34D81212F2EB2573
:101B0000E025E0243FF81203D11213EF2410F874FB
:101B100027F2087410F2801D25E025E0243FF8121A
:101B2000040E00000000EB1213051213EF2410F84E
:101B3000EEF208EFF29001E3E0FB12131512040E2F
:101B400000000000EB25E02457F8E4F208F29001D1
:101B5000E3E0FF25E02410F8E2FC08E2FDEF25E0D9
:101B60002414F8ECF208EDF2E025E02418F8E4F291
:101B700008F2E004F0021AC1229001E1EEF0A3EFB6
:101B8000F0E49001E4F09001E3F09001E3E0FBC3A6
:101B900094024003021C4A90019CE0940090019B37
:101BA000E0940040109001E3122CA912040E0000F2
:101BB0000000021C41EB25E02458F9E3700219E310
:101BC0007008122CBD122D2A80309001E3E0FD2513
:101BD000E02453122CDEED122CC2123D48C39001BA
:101BE000B7E09F9001B6E09E5010122CBD122D2A36
:101BF000122CA912040E000000009001E3E0122C48
:101C0000B5C00012034BC006C0079001E3E025E019
:101C10002410122D1ED007D006120138D000120356
:101C2000D19001E3E0FF25E02457F808E22401F217
:101C300018E23400F2EF25E02458F99001E1E0FECB
:101C4000A3E0FFC3E39F19E39E40069001E4E00494
:101C5000F09001E3E004F0021B7A9001E4E06402FA
:101C600070649001E3F09001E3E0FFC394025054EC
:101C7000EF25E02457122CDE4E6049E4FCFDC00441
:101C8000C005C006C007E0122CB512034BD003D02C
:101C900002D001D0001201DE9001E3E0FD25E02436
:101CA00014F8EEF208EFF2ED25E02457F8E4F2081C
:101CB000F2ED122CB512040E000000009001E3E0DA
:101CC00004F080A2C21722439F04E453C6DFE5C696
:101CD00000B5C6F375830075820775FD0DE4E5FE5A
:101CE000F4FF75830075820675FD0DE4E5FEB5070A
:101CF00004F59E8003759E0078100000D8FC53C642
:101D0000E043C60843C6807596077597057583003E
:101D100075820475FD0DE5FD0404F58F758300756E
:101D2000820375FD0DE4E5FEF4FF75830075820204
:101D300075FD0DE4E5FEB50704F595800375958303
:101D400075BE0E5392FE9001007F007E02E4F0A368
:101D5000DFFCDEFA78007F00E4F208DFFC78FFE4C5
:101D6000F6D8FD7581C5021D97020000022AA5E480
:101D700093A3F8E493A34003F68001F208DFF48014
:101D800029E493A3F85407240CC8C333C4540F4464
:101D900020C8834004F456800146F6DFE4800B013E
:101DA00002040810204080903C22E47E019360BC35
:101DB000A3FF543F30E509541FFEE493A360010ED6
:101DC000CF54C025E060A840B8E493A3FAE493A3FD
:101DD000F8E493A3C8C582C8CAC583CAF0A3C8C51E
:101DE00082C8CAC583CADFE9DEE780BE12003E9022
:101DF00001E31212D3E49001E1F09001E1E0FFC3AE
:101E0000940250121212FC12040E00000000900105
:101E1000E1E004F080E49001E17405F0123B18E485
:101E20009001E2F09001E2E0FF1212FDC0001232D8
:101E3000D8120138D000121342E0C3940240E512D8
:101E400013BEE49001E2F09001E2E0FFC39402507F
:101E50002E1212FCC00012034BC004C005C006C005
:101E6000079001E2E024631232DE121326D007D07D
:101E700006D005D004120145D00012134280C8904C
:101E800001E1E014F0E07094E49001E2F09001E2EE
:101E9000E0FBC3940250529001E41203DD0014826F
:101EA000001213C4EB1212FD1203631201DE900143
:101EB000E41203C51213C49001EC1203C57F807EA7
:101EC000007D007C001239F112132F500B9001E2BB
:101ED000E0245BF87680800C1213C49001E2E024C9
:101EE0005BF8A60712134580A49001E3E0F5BA223F
:101EF0009001E17407F0FB9001E31203DD000000A4
:101F00000012003E9001E1E0FF601F74017E00A816
:101F100007088005C333CE33CED8F9FFADACEF5DF3
:101F200070089001E1E014F080DAEB601612137291
:101F30008005C333CE33CED8F9FFADAEEF5D70036D
:101F40001B80E79001E1E0FF7401A807088002C34D
:101F500033D8FCF5AC7401A803088002C333D8FC65
:101F600012133943AA049001E21212D312128542CD
:101F7000AB123B1BE49001E1F09001E1E0FFC39460
:101F800001502212131D1232E39001E71203C51211
:101F900013DE12137A50061213DE1203C59001E10C
:101FA000E004F080D49001E3120357C0009001E3F5
:101FB00012033F7803120297D0001201389001E318
:101FC0001203C59001E312033F9000A51203C5431D
:101FD000AA3053AAFB9001E2E0F5BA121285F4523E
:101FE000AB12129A229001E17407F0FB9001E31208
:101FF00003DD0000000012003E9001E1E0FF601FE1
:1020000074017E00A807088005C333CE33CED8F90B
:10201000FFADACEF5D70089001E1E014F080DAEB09
:1020200060161213728005C333CE33CED8F9FFADDC
:10203000AEEF5D70031B80E79001E1E0FF7401A843
:1020400007088002C333D8FCF5AC7401A8030880EC
:1020500002C333D8FC1213399001E21212D3123B9F
:102060001BE49001E1F09001E1E0FFC39402501FF6
:102070001232DB9001E71203C51213CA12137A5011
:10208000061213CA1203C59001E1E004F080D79054
:1020900001E3120357C00012130F7803120297D006
:1020A000001201389001E31203C512130F783A129F
:1020B00003D112130F78101202978FB312130F78F7
:1020C000081202978FB212130F8FB143AA309001FA
:1020D000E2E0F5BA1213B422E4FDED25E030050983
:1020E00024D9F582E43439800724C1F582E43439F7
:1020F000F583E493FE740193122C9BEEF0A3EFF0B2
:102100000DEDB402D5E4FD74017E00A8050880053C
:10211000C333CE33CED8F9FF900184E0FBEF5B7080
:102120000302219BED25E0245B122CDE122CE540FE
:102130002AD3EB942CEA9401ED400E25E0245BF8C1
:102140007401F208742CF2801225E0241C122CDE9B
:10215000ED25E0245BF8EEF208EFF2ED25E024D166
:10216000F582E43439F583E493FE740193FFED25A1
:10217000E0241DF9D3E39F19E39E4043122D04CEC2
:10218000C313CE13D8F9122C9BE0FAA3E0D39FEA35
:102190009E4009122C9CE0FEA3E0800A122D04CE82
:1021A000C313CE13D8F9122CF58014122C9CE0FE28
:1021B000A3E0122CF5ED25E0245BF8E4F208F20D23
:1021C000ED640260030220F72220CA030222A9E57F
:1021D0004670030222A9E4FF74462FF8E6FE74E27B
:1021E0002FF582E43401F583EEF0E4F60FEFB40A44
:1021F000E79001E2E0FF54F0FEEF540F9001E1F0B0
:10220000AF06EF120461220F50221660221D7022C9
:1022100034902275A02254B022A6C0000022A978D2
:1022200058E64401805C7858E654FE8055E4785ABC
:10223000F6FF123D1A785AEFF67856BFFF0376077D
:102240002276FF229001E1E0FF700A7858E630E143
:102250006854FD802DEF6401705F7858E620E159E5
:102260004402801E9001E1E0FF700A7858E630E5F4
:102270004854DF800DEF6401703F7858E620E5395F
:102280004420F6802D9001E1E0FD70127858E63090
:10229000E22754FBF69001B5E04408F08014EDB459
:1022A00001177858E620E2114404F69001B5E044A5
:1022B00004F0751C022212390622E49001E3F0902A
:1022C00001E2F09001E2E0FBC39401400302238E9F
:1022D000900187E07070120E10404C9001E2E0FF18
:1022E00025E0241DF582E43401120C5DC39DFFEE50
:1022F0009CFEE4FCFD9001E41203C5EB120D05E425
:1023000093FE740193FF7C007D031200ABE4FD900B
:1023100001E4120357D3120270407A120D118002A9
:10232000C333D8FC022380120D00E493FC740193A4
:10233000FD120E1D9D19E39C405B120D118002C31E
:1023400033D8FC0223803016279001E2E0FD120D05
:102350000574019325E0FFE49333FEED120E1E9FFA
:1023600019E39E4030120D118002C333D8FC802047
:10237000120D0074019324D8FDE49334FFFC120E77
:102380001D9D19E39C400E120D118002C333D8FC31
:102390004F9001E3F09001E2E004F00222B39001DB
:1023A000E3E0FF90022CF022E49001E2F09001E2E1
:1023B000E0FF120F6BEF25E02410120FB8D39DEE53
:1023C0009C4014E0120F6BC3EF9DFFEE9CFEE4FCFB
:1023D000FDA31203C5800A9001E31203DD00000093
:1023E000009001E312033F78071202BE9001E3124E
:1023F00003C59001E2E0120FB4E4FCFD780712027D
:10240000BE9001E71203C5900182E070127F03FEC7
:10241000FDFC9001E3120E90120F497802800B90A0
:1024200001E312033F120F4978011202979001E76E
:102430001203C59001E712033F780712029790013B
:10244000E2E0FD25E0241812103FED120FB47C00ED
:102450007D64120487C006C007E025E02447F8E247
:10246000FE08E2FBAA06E4F9F8D007D0061201DE66
:102470009001E2E025E0241C12103FE004F0E0644B
:1024800002600302239D22C0E0C0F0C083C082C06E
:10249000D075D008C2CFD21130CD0302254920CC4F
:1024A0006130CB2385CE54E554C39480401675F03B
:1024B00003E554902D991204271204558B518A522A
:1024C0008953807902253F85CE35E5547022E53564
:1024D000B4100990022EE0F45280807BE535B420E0
:1024E0000890022EE04280806E8535460554806754
:1024F000E554C3940A500774462554F8A63505548C
:102500008055E554B4C0057546C0804BE554B4C150
:10251000107858E630E105754690803B754691800D
:1025200036E554B4C2107858E630E2057546A0800E
:10253000267546A18021E554C3948040107851E46B
:1025400075F00112043312005EF5CE800A0554E5E1
:10255000502554F8E6F5CED210D0D0D082D083D01A
:10256000F0D0E0329001F112044C9001F4EDF0E46F
:10257000F528F527F526F52574FFF52CF52BF52A1A
:10258000F529E4F530F52FF52EF52DF5249001F41D
:10259000E0FFE524C39F50709001F112044375F0F1
:1025A00004E524A4F58285F0831202D18F348E33A2
:1025B0008D328C31AF28AE27AD26AC25D31233989F
:1025C000400C853428853327853226853125AF2C6C
:1025D000AE2BAD2AAC29C3123398500C85342C8510
:1025E000332B85322A853129E5302534FFE52F3517
:1025F00033FEE52E3532FDE52D35318F308E2F8DB2
:102600002EF52D052402257D852839852738852638
:1026100037852536852C3D852B3C852A3B85293AF7
:10262000853041852F40852E3F852D3E9001F4AFAA
:1026300030AE2FAD2EAC2D12336E22900186E0907D
:10264000018BF0120CF25005120CCA4007E4900105
:1026500086F080081222AA900186EFF0900186E0B1
:10266000FF123264EF700D120CF25008120CCA50B7
:1026700003022701900187E0702F1229F27F0212D6
:102680003ABBD3120E10401E30140DEF7803CEC3A8
:1026900013CE13D8F9FF800EEEC4F854F0C868FECC
:1026A000EFC4540F48FF121064121416900187E013
:1026B000FFA3E06F605B12304AE49001E1F090010B
:1026C000E1E0FFC394015043EF2404FF74017E0056
:1026D000A807088005C333CE33CED8F9FF9001890F
:1026E000E0FDEF5D601D120CC95005120CF34008AF
:1026F000120D4E120C48800B7F08123ABB120D4E81
:10270000120C9F9001E1E004F080B3900187E0A3F8
:10271000F022900185E0FF900184E0FE6F601D9043
:10272000018AE0FD900189E0FC6D601030010478C1
:1027300055A60630022B7864A6048025900184E01B
:10274000FE6F600D30011A7855A606E47864F680B5
:10275000101236EC600B3002087864A606E4785557
:10276000F61236EC6016EE540F600B20140E7864EF
:10277000E64480F680067864E6547FF6900186E0B1
:10278000FF90018BE06F6016EF540F600B20140E6A
:102790007864E64440F680067864E654BFF6D39049
:1027A000018EE0940090018DE094007864E640058D
:1027B0004408F6800354F7F67864E63014054404C0
:1027C000F6800354FBF6900184E0A3F0900189E0C9
:1027D000A3F022E4FF123D1A7856BFFF047607806B
:1027E0000276FFE47855F67857762808F6785AF698
:1027F000FFEF25E024C1F582E43439F58312370375
:10280000FDEF75F008A424651236D875F008A424ED
:10281000671236F824691236F8246BF8E4F608F6E5
:102820000FEFB402CCE4FFEF1236B8123703FDEF1E
:10283000C454F024851236D81236B81236E0EFC4EC
:1028400054F024871236D8C454F02489F87600084E
:102850007664EFC454F0248B1236C4248D1236C42F
:10286000248F1236C424911236C42493F8E4F6EF70
:1028700025E024E9F582E43439F583740193FEEF11
:10288000C454F02494F8A6060FEF640170997550B3
:1028900055227B077A079001E21203DD0000000059
:1028A00012003EEB60161213728005C333CE33CE96
:1028B000D8F9FFADACEF5D70031B80E7EA601A74D6
:1028C000017E00A802088005C333CE33CED8F9FFBD
:1028D000ADAEEF5D70031A80E3AF037401A8070883
:1028E0008002C333D8FCF5AC7401A802088002C38F
:1028F00033D8FC1213399001E11212D3123B1B1290
:10290000127D9001E61203C51213D412137A5006F9
:102910001213D41203C59001E2120357C0009001B4
:10292000E212033F7803120297D00012013890019F
:10293000E21203C59001E212033F9000731203C537
:1029400043AA309001E1E0F5BA12129A229001F107
:1029500012044C9001F4EDF0E4F525F52674FFF532
:1029600027F528E4F52EF52DF52CF52BF52490010F
:10297000F4E0FFE524C39F50599001F11204437520
:10298000F002E524A4F58285F0831200D3F52A85B0
:10299000F029D39526E52995254006852925852A00
:1029A00026C3E52A9528E5299527500685292785F8
:1029B0002A28E4FCFDE52E252AFFE52D3529FEED2C
:1029C000352CFDEC352B8F2E8E2D8D2CF52B0524E3
:1029D000809CE4852639852538F537F53685283DF0
:1029E00085273CF53BF53A852E41852D40852C3FCA
:1029F000852B3E9001F4AF2EAE2DAD2CAC2B1233B7
:102A00006E22E49001E2F09001E2E0FFC394014005
:102A100003022AA4EF120D52120C6E4E6003022A1A
:102A20009B3000409001E2E0120E48120C63FFC39D
:102A30009DEE9C502D9001E2120D999001E2E01262
:102A40000D05C37401939FE4939E50167F05123ABF
:102A5000BBEEC313FEEF13FF120D30120DB8404B47
:102A6000802D80379001E2E0FF120E48FDEF120E3C
:102A70003DC39DEE9C502A120D99D39432EE9400E2
:102A800040197F05123ABB120D30120DB8401C9050
:102A900001E2120D7D7401F0EF800A9001E2E08006
:102AA000049001E2E0120D34120C489001E2E004BF
:102AB000F00229F722123B41123DC3123DF41227C6
:102AC000C3123CC8123A24123BB5D2AF751C01E5C3
:102AD0001C24FE602114603914604F1460592404D2
:102AE0007066123DE4123D5E123D74123D8A123D45
:102AF000317F021238C8D2D8E490018FF0A3F09051
:102B00000216F0A3F0122D40E51D70FC123B9080E0
:102B100032D2D8E51D70FC1215BD8F1C122DE1902C
:102B2000022DE004F0123B9080211239428F1C12DA
:102B3000173D1218B980143001031230DF12262B12
:102B4000122702751C038003751C01123E0EE51C42
:102B500064047003022ABF1221B9022ABFC0E0C078
:102B6000F0C083C082C0D075D01053B9FDE51D649C
:102B700001702C900215F0900215E0FFC3940250F2
:102B80000F1232DB900215E01212FD1213AA80E739
:102B90007F01123C4543B901D2D8751D02805BE527
:102BA0001D6402701F12127D78201203D17F011262
:102BB0003CE690022DE0FF12397D43B901D2D87571
:102BC0001D068036E51D64067030900215F09002F7
:102BD00015E0FFC39401501612131D1232E3900248
:102BE00015E025E025E0242AF81213AA80E012124D
:102BF00085F452AB53AAFB751D00D0D0D082D08390
:102C0000D0F0D0E03212003E9001E21212D37820D0
:102C100012040E000000009001E17405F0123B1850
:102C2000782012036312127D12013878201203D12A
:102C30001213BE782012034BC004C005C006C007A3
:102C400012127D121326D007D006D005D00412012F
:102C50004578201203D19001E1E014F0E070BE78D5
:102C6000201203637F007E177D117C001201DE902D
:102C700001E31203C59001E312033F9001EC12033C
:102C8000C57FB47E007D007C001239F112132F50F5
:102C900006785D76B4800A9001E312033F785DA662
:102CA000079001E2E0F5BA12138922FFED25E02436
:102CB000E1F582E43401F58322E0FF25E02457F8B2
:102CC000E4F208F2EF25E025E0244BF8229001E33E
:102CD000E0FF25E02410F8E2FC08E2FD229001E28A
:102CE000E025E02493F582E43401F583E422F8E260
:102CF000FE08E2FF22ED25E0241CF8E2FA08E2FBE0
:102D0000D39FEA9E22FFED75F008A42465F8A6067D
:102D100008A60722ED25E0245BF9E3FE09E378022B
:102D200022EE25E0241DF9C3E39D19E39C22F8E27D
:102D3000FE08E2FBAA06E4F9F822EF25E02453F8A6
:102D4000ECF208EDF222ED2404FF7401A80708223A
:102D50007858E6F520A208300001B350147F041221
:102D60003ABB9001BFEEF0A3EFF0123906A2009239
:102D700008A209300101B350121235AD300105121D
:102D80002DD78003123E09A2019209301205122D9F
:102D9000D7C212A20A300201B35004A202920A3032
:102DA0001305123906C213A20D300501B35037E4E2
:102DB000FFEF25E030050924D9F582E43439800796
:102DC00024C1F582E43439F583E493FC740193FD66
:102DD000EF75F008A42465F8A60408A6050FEFB463
:102DE00002CFA205920D22E4FF123AEA0F121A183E
:102DF00022E49001E1F0A3F0301117900191F0A3CB
:102E00007446F07F0C123ABB9001A5EEF0A3EFF0F0
:102E1000C211A21492152001253002028020D39005
:102E2000019AE09400900199E0940050119001A65D
:102E3000E094009001A5E09400500320100D900153
:102E400091E4F0A37446F0C214800B900191E4F079
:102E5000A37403F0D214301408E4FF123A89123C30
:102E60008AA215301401B35017900187E06004D294
:102E700016800D7F03123ABB90018DEEF0A3EFF0A8
:102E8000900187E07008301603123906C2162290AE
:102E900001F11203C5E47BE87A03F9F89001F1121D
:102EA0000ED69002011203C5900201120E89900104
:102EB000F1120F5290020512101F900201120E9093
:102EC000120EC79002091203C59001F512033F903C
:102ED0000209120E909001FD120F5290020D121075
:102EE0001F900205120E909001FD1203C59001FD86
:102EF000120357C000C001C002C00390020D120EA1
:102F000089D003D002D001D000120138120EC79030
:102F100002111203C5E47FE87E03FDFC9002091252
:102F20000E90900211120F4C22FE0010FE0028FE9F
:102F30000032FE0014FE0034FE0018FE0036FE00D3
:102F40001CFE0038FE0000FE0020FE002AFE0008E5
:102F5000FE0024FE002E01011001012701012D01B8
:102F6000009101022A01022B01018101018201016C
:102F70008401022C0101860101870101890101936D
:102F800001018F0101910101970101990101A50141
:102F900001A70101BB0101340101BF0101C1010110
:102FA000C90101D10101D90100E701009D010130F2
:102FB00001013201012E01011001011F01019D01DA
:102FC00001ABE49001ECF0EF606E12003E90007CEB
:102FD0001203DD00000000123B1B90007C12127AED
:102FE00012013890007C1203C59001EC1213E840E6
:102FF000E6E0FFFBE4FAF9F890007C12033F1201CF
:10300000DE9001ED1203C5785DE6FFE4FCFDFE9065
:1030100001ED1212AB78241203D1E4FB9001ED1202
:10302000033FEB25E025E02484F582E43400F583BA
:103030001203C50BEBB403E490009D121272A312AD
:1030400003DD001D4C00782412034B1212EB90009C
:10305000781203C5782812135E229001E2EFF090F7
:1030600001B5E060030230DEF9FFFE7401A8060836
:103070008002C333D8FCFD9001E2E05DFC90018842
:10308000E05D6C600D30020A2018079001B5E04445
:1030900002F0900188E05DB50513EE2404FC740194
:1030A000A804088002C333D8FC49F9800D7401A834
:1030B00006088002C333D8FC49F99001E2E05DB50F
:1030C000050F7401A806088002C333D8FC4FFF80A7
:1030D00011EE2404FD7401A805088002C333D8FC56
:1030E0004FFF0EEE64017083E95F900189F02212B8
:1030F00020C812365E900181EFF012000EEF60746E
:10310000900182E0703E123B691234F17F01123A65
:10311000BBD3900198E09400900197E094004002A6
:103120008011301702800CC37860E2941E18E2947C
:1031300000500EEEC4F854F0C868FEEFC4540F48B7
:10314000FF121B69900182E0FF12354F900182E06F
:10315000FFA3E06F601E123165900184E054F060BF
:103160000D7F07123ABB90019BEEF0A3EFF09001A8
:1031700082E0A3F0229001E1EFF0E4FAFE9001B5C5
:10318000E07072FD7401A805088002C333D8FCF911
:103190009001E1E059FC900183E0596C60079001D7
:1031A000B5E04401F0900183E059600D122D3680A6
:1031B00002C333D8FC4AFA800D7401A805088002C6
:1031C000C333D8FC4AFA9001E1E059600F7401A8BA
:1031D00005088002C333D8FC4EFE800B122D3680CA
:1031E00002C333D8FC4EFE0DED64027097AF06EAC1
:1031F0005F900184F022E47FB37E06FDFC7820120C
:10320000036312123D40031212B67FFF1212624096
:103210000678C576FF800A9001E312033F78C5A6C1
:1032200007E49001E2F09001E2E0FFC39401504313
:10323000EF75F030A424BEF582E43400F583120368
:103240003FE47BB37A06F9F812123D40031212B63E
:10325000E47FFF121263400712139F76FF800B90EA
:1032600001E312033F12139FA6079001E2E004F06E
:10327000023216229001E2EFF0E4F99001E37405C6
:10328000F074017E00A801088005C333CE33CED888
:10329000F9FF9001E2E0FDEF5DFD900187E0FBEFBB
:1032A0005B6D7001E4600D9001E2E0900187F01227
:1032B0000DADE4F07858E630E00C900187E0700640
:1032C0009001E3740AF0120DADE004FFF09001E309
:1032D000E0FEEFC39E50037F0022120DADEEF00919
:1032E000E9640170967F012212036374632FF582F3
:1032F000E43400F583E0FFEFC39404500553B9EFC5
:10330000800343B910EF6003B4040B85B71985B689
:103310001A85B51B803AEF64016004EFB4050B8594
:10332000EB1985EA1A85E91B8026EF64026004EF39
:10333000B4060B85F31985F21A85F11B8012EF6430
:10334000036004EFB4070985FB1985FA1A85F91B98
:10335000AF1BAE1AAD19AC1822F58374FFF5F0025D
:1033600000BD9001E1E0FF25E0249DF582E43401F9
:1033700022F583E0FCA3E0D39400EC940022E0FB70
:10338000E4FAF9F81201DE8F458E448D438C422217
:1033900025E024A1F582E4340122EF25E0249FF505
:1033A00082E43401F583E422AB34AA33A932A83194
:1033B00002028625E024B9F582E434012225E024C6
:1033C000B1F582E43401229001F41203C59001F1B9
:1033D00012044C9001F412033F78061202BE9001D1
:1033E000F41203C59001F8E0FF74017E00A80708FD
:1033F0008005C333CE33CED8F924FFFFEE34FFFE71
:103400003395E0FDFC1203701201539001F4120F8A
:103410004C9001F8E0F9F8120FEB9001F11204431F
:10342000120301AF27AE26AD25AC247806120FEBB0
:10343000229001B5E05403600312346C9001B5E0B2
:1034400054FCF0900189E0540FFF60289001B5E032
:10345000FE30E2067864A6078010EE30E31D90018E
:1034600089E0540FC454F07864F6E47855F62018D7
:103470000312346C9001B5E054F3F022C2107F09BE
:10348000123ABB9001A7EEF0A3EFF0C2927F217E2B
:10349000007D007C00123D02D29222E4FBFE783EC9
:1034A000E2FD74632EF582E43400123E01FCED4C23
:1034B000F20EEEB402E8900077E0FE900067E09034
:1034C00039B893FDEE4D900077F0E4FE9000A9E04E
:1034D000FF746B2EF582E43400123E01FDEF4D9037
:1034E00000A9F00EEEB401E4900077E0FF783EE230
:1034F0004FFF9000A9E04F42D442F442E4F452DC82
:1035000022E49001E1F09001E1E0FF25E0241412B3
:103510002CC6EF25E02410122CDEC39DEE9C503407
:10352000E025E02415F8C3E29FFF18E29EFE7C0030
:103530007D64120487C006C007E025E02447122DF1
:103540001ED007D0061201DED3EF940AEE9400409D
:1035500003D217229001E1E004F0E0B402A8229027
:1035600001E1EFF0E4A3F09001E2E0FFC394025028
:103570004B74017E00A807088005C333CE33CED834
:10358000F9FF9001E1E0FDEF5D60237F06123ABB99
:10359000122CCD75F0011200BDFCD3E5F09FEC9E1E
:1035A0004012E4900181F0A3F0123E098006122C33
:1035B000CDF0A3F09001E2E004F080AB22E4FF90B4
:1035C0000182F0A3F09001B3F090019BF0A3F09082
:1035D0000184F0A3F0C217EF25E02447122CC69017
:1035E00001B6EC8DF01200BDEF122CD1F0A3F00F5C
:1035F000EFB402E39001B6E0C313F0A3E013F09040
:1036000001B6E0FEA3E07802CEC313CE13D8F9F0E2
:10361000EE9001B6F022E49001E2F09001E2E0FFCA
:10362000C394025046EF25E025E0243FF8120363DF
:10363000C0009001E2120FCC12034BD000120145E2
:103640009001E31203C59001E3120FFFC31202863B
:1036500040037F02229001E312033F9001E2E02544
:10366000E0241012103FE004F080B07F0522E4FF58
:10367000FE900182E07021EE75F008A42465F8E662
:10368000FC08E6FD122D1140327401A806088002E4
:10369000C333D8FC4FFF8023EE75F008A42466F8EE
:1036A000E624FBFD18E634FFFC122D11400D7401D9
:1036B000A806088002C333D8FC4FFF0EEEB402B157
:1036C00090022AEFF022FFEE25E024C9F582E434CF
:1036D00039F58322F8E4F608F6EFC454F0227810A6
:1036E000120297AD07AC0622F8A60408A605EF2241
:1036F00074019324D8FDE49334FFFC2290018AE006
:10370000FF900189E0FE6F22F8E4F608F6EF75F00D
:1037100008A422E493FC74019322E4FFEF25E02443
:1037200034120F6FEF25E02432F8E2FA08E2FBD3FF
:103730009DEA9C4012EB9DFDEA9CF8EF25E02436C3
:10374000C8F208EDF2800AEF25E02436F8E4F2082A
:10375000F2EF25E02436120F6FEF25E02438F8EC65
:10376000F208EDF20FEFB401B322A907E4FFFEEE79
:10377000C394005010746F2EF582E43400123E01A1
:103780004FFF0E80EAE96005EF42D48004EFF45267
:10379000D4EFF4FE52F4EF42E4ED6005EF42EC802A
:1037A00003EE52ECEFF4FE52DCEB6005EF4280805A
:1037B00003EE528090022EEFF022C0E0C0F0C083F2
:1037C000C082C0D075D000C000C28D758C32758AA1
:1037D000EB900216E475F0011200BDC3900217E0F1
:1037E0009414900216E09400401290018FA3E078A8
:1037F0005FF690018FE4F0A3F0120004D000D0D067
:10380000D082D083D0F0D0E0329001BB1203DD0033
:10381000000000E4FF123C4575ABFF123B1B90011A
:10382000BB12127A1201389001BB1203C51213BEEB
:103830009001BB12033FC004C005C006C0071212AE
:103840007D121326D007D006D005D0041201459072
:1038500001BB0203C59001F812033FC003C002C0C0
:10386000019001F4120F7975F004A4F58285F083BC
:10387000D001D002D00312031B9001F41204437450
:10388000011200779001F4120F79FF9001F7E0B573
:103890000704E4120099229001F8E0FEA3E0FFC0C3
:1038A00003C002C001120F7675F002A4F58285F004
:1038B00083D001D002D003EE8FF012010B9001F4FF
:1038C0001204437401120077120F76FF9001F7E0A3
:1038D000B50704E412009922EF6003D38001C3927C
:1038E000099201EF6003D38001C3920A92027858D3
:1038F000A607900191E4F0A37446F07F0A123ABB48
:10390000900197EEF0A3EFF07F0B123ABB90019974
:10391000EEF0A3EFF022E51D70FCE4FF122FB2E4FD
:10392000FF120979E4900187F0900189F0FF120CF1
:1039300012120E32120C480FEFB401F220000512E1
:103940000CC9400D7F04123ABB9001BFEEF0A3EF0B
:10395000F0229001E17405F0300113123606900157
:10396000E1EFF0BF0205D212E0FF22122398123AD3
:10397000571204F99001E1EFF0BF0205D213E0FF06
:103980002212370A123C689001E1E0FF2290022DDA
:10399000E0D394034002E4F0EF14601214601714B3
:1039A000601D24037021121285F452AB800D121297
:1039B00085F452AB800E12128542AB53AAFB221241
:1039C000128542AB43AA0422010204081020408061
:1039D0000D00320032003C003C0190003C003C00F5
:1039E0003C00780078003C003C03E803E8003C0021
:1039F0003C0082012C00640064FFDD000000000038
:103A0000009001E81203C59001EC12033F9001E819
:103A1000120357D3120286400B9001EC1203579009
:103A200001E880099001E81203579001EC12033F6E
:103A30001201452243F80875CD4053CC7F43CC405A
:103A400043CC2043CC1043CC0453CCFD43CB0243A6
:103A5000CB0153CBBFD2EB53E5FC43E30243F50369
:103A600043900343ED032290007812033FAB07AA73
:103A700006782412034BC3EF9BFFEE9AFE7B017A7C
:103A800000799FE4FCFD9001F87405F01233B778DB
:103A900028EEF208EFF27F0522E4F51D53B9FD533D
:103AA000B9DF43CC02C2D9539FFD438760C28DEF7B
:103AB000700675BD0D75BC01123DB275BE0CD28C81
:103AC00020C90343870300000000227D017C00EF32
:103AD000C394125020EF25E024DBF582E4343BF55B
:103AE00083E493FF7E00900191E0FCA3E0FD1200CF
:103AF000ABAC06AD07AE04AF052253BA0F43BA20F4
:103B000075BBFF75A9501213B4783EE2F5B4EF709F
:103B100009F5B375B24E75B12022783BE2F5B308D2
:103B2000E2F5B208E2F5B12275ABFF75BF0F0000F8
:103B30000000000000000000000000000000000085
:103B4000D2D853B9FD43B901E5B930E1FBE4F5BF83
:103B500022E4F5E3439F107F03FEFDFC123D024388
:103B60009F027F037E007D007C00123D0275BE0E29
:103B7000E4F5BFF5B975927622781CE2FE08E2FF03
:103B80009001E1EEF0A3EFF07D01122CE54004AED0
:103B900002AF030DEDB402F2785FEEF208EFF2220D
:103BA0007F01300108123AEA751D018006123C457A
:103BB000751D0275BF0F43B92053B9FD43BA0143C8
:103BC000B901D2D822E4FFEF25E024E1F582E43404
:103BD00039F583E493F8740193FDEF25E02447C899
:103BE000F208EDF20FEFB402DE2200030101020839
:103BF00003050401050106060701080109010A037E
:103C00000B140C010D010E020F01103C11B4E490D5
:103C10000187F0A3F0A3F0A3F0C216FFEF120D345A
:103C2000120C48120C12120E32120C480FEFB40193
:103C3000EB224400630506FFFF44006700FFFFFF1F
:103C400044006B02FFFFFF44006FFFFFFFFF0418FB
:103C5000000000000012128E900077E0F5B4EF70C3
:103C60000AF5B375B28875B1B88006900074121366
:103C70006612138953AAFB229001EC1203DD0000A7
:103C8000CB20782412034B1239F1E47B987A3A1254
:103C900010395003D21822C21822E49001E3F075C3
:103CA000BE0E439F027F03FEFDFC123D0275BC0267
:103CB000E4F5BFD2D953CCFD22EF600543D5048093
:103CC0000353D5FB53F5FB53E5FB43E30443ED04FA
:103CD000E49001B5F0D29222438901C28DD2A9535A
:103CE000B8FD12000390018FF0A3F0758C32758A35
:103CF000EBD28CD2AF2212128E9000A9E0F5B4EF75
:103D00007009F5B375B2AF75B1C8229000A6121351
:103D100066229001E41203C59001E474FF1203923D
:103D2000EC4D4E4F60030080EF22E4FFF582F583F7
:103D30007440FEE493F42FFFA3EEB583F6227F00D8
:103D400022E49001A7F0A3F07F0C123ABB9001A5EA
:103D5000EEF0A3EFF0D21022D3EF9DEE9C4007EFE0
:103D60009DFFEE9CFE22C3ED9FFFEC9EFE22E4FF32
:103D7000123AEA121DDC121FD57F01123AEA121A1A
:103D8000180235ADE4FF123C45122BF51228827F54
:103D900001123C45122FB20237F9E4FF123CE61241
:103DA0003DA0121EE07F01123CE6120979023BFEA3
:103DB000E4FF785DE6FE745E2FF8A6060FEFB4010F
:103DC000F122438901C28CC28F120003758CFB75EE
:103DD0008AED2212348B7B017D01E4FF12375A7F7A
:103DE00001023CA920C90CC2AFA807A60408A60579
:103DF000D2AF222275AA3B53BAF343BA0843B92083
:103E000053B9BF22C2DA53D80F43D8D0D2D8D2D9AF
:103E100022F583E09039B89322E4FF021A180234A5
:103E200021FFFFFFFFFFFFFFFFFFFFFFFFFFFFFF80
:103E3000FFFFFFFFFFFFFFFFFFFFFFFFFFFFFFFF92
:103E4000FFFFFFFFFFFFFFFFFFFFFFFFFFFFFFFF82
:103E5000FFFFFFFFFFFFFFFFFFFFFFFFFFFFFFFF72
:103E6000FFFFFFFFFFFFFFFFFFFFFFFFFFFFFFFF62
:103E7000FFFFFFFFFFFFFFFFFFFFFFFFFFFFFFFF52
:103E8000FFFFFFFFFFFFFFFFFFFFFFFFFFFFFFFF42
:103E9000FFFFFFFFFFFFFFFFFFFFFFFFFFFFFFFF32
:103EA000FFFFFFFFFFFFFFFFFFFFFFFFFFFFFFFF22
:103EB000FFFFFFFFFFFFFFFFFFFFFFFFFFFFFFFF12
:103EC000FFFFFFFFFFFFFFFFFFFFFFFFFFFFFFFF02
:103ED000FFFFFFFFFFFFFFFFFFFFFFFFFFFFFFFFF2
:103EE000FFFFFFFFFFFFFFFFFFFFFFFFFFFFFFFFE2
:103EF000FFFFFFFFFFFFFFFFFFFFFFFFFFFFFFFFD2
:103F0000FFFFFFFFFFFFFFFFFFFFFFFFFFFFFFFFC1
:103F1000FFFFFFFFFFFFFFFFFFFFFFFFFFFFFFFFB1
:103F2000FFFFFFFFFFFFFFFFFFFFFFFFFFFFFFFFA1
:103F3000FFFFFFFFFFFFFFFFFFFFFFFFFFFFFFFF91
:103F4000FFFFFFFFFFFFFFFFFFFFFFFFFFFFFFFF81
:103F5000FFFFFFFFFFFFFFFFFFFFFFFFFFFFFFFF71
:103F6000FFFFFFFFFFFFFFFFFFFFFFFFFFFFFFFF61
:103F7000FFFFFFFFFFFFFFFFFFFFFFFFFFFFFFFF51
:103F8000FFFFFFFFFFFFFFFFFFFFFFFFFFFFFFFF41
:103F9000FFFFFFFFFFFFFFFFFFFFFFFFFFFFFFFF31
:103FA000FFFFFFFFFFFFFFFFFFFFFFFFFFFFFFFF21
:103FB000FFFFFFFFFFFFFFFFFFFFFFFFFFFFFFFF11
:103FC000FFFFFFFFFFFFFFFFFFFFFFFFFFFFFFFF01
:103FD000FFFFFFFFFFFFFFFFFFFFFFFFFFFFFFFFF1
:103FE000FFFFFFFFFFFFFFFFFFFFFFFFFFFFFFFFE1
:103FF000FFFFFFFFFFFFFFFFFFFFFFFFFFFFFFFFD1
:10400000FFFFFFFFFFFFFFFFFFFFFFFFFFFFFFFFC0
:00000001FF
